{
  "contractName": "fraudBattle",
  "abi": [
    {
      "anonymous": false,
      "inputs": [
        {
          "indexed": true,
          "internalType": "address",
          "name": "previousOwner",
          "type": "address"
        },
        {
          "indexed": true,
          "internalType": "address",
          "name": "newOwner",
          "type": "address"
        }
      ],
      "name": "OwnershipTransferred",
      "type": "event"
    },
    {
      "inputs": [
        {
          "internalType": "uint256",
          "name": "",
          "type": "uint256"
        }
      ],
      "name": "bankArray",
      "outputs": [
        {
          "internalType": "address",
          "name": "_addressBank",
          "type": "address"
        },
        {
          "internalType": "string",
          "name": "_name",
          "type": "string"
        }
      ],
      "stateMutability": "view",
      "type": "function",
      "constant": true
    },
    {
      "inputs": [
        {
          "internalType": "uint256",
          "name": "",
          "type": "uint256"
        }
      ],
      "name": "businessesArray",
      "outputs": [
        {
          "internalType": "address",
          "name": "_addressBus",
          "type": "address"
        },
        {
          "internalType": "string",
          "name": "_name",
          "type": "string"
        },
        {
          "internalType": "string",
          "name": "_bankAccount",
          "type": "string"
        },
        {
          "internalType": "uint256",
          "name": "_companyNumber",
          "type": "uint256"
        },
        {
          "internalType": "string",
          "name": "_bankName",
          "type": "string"
        }
      ],
      "stateMutability": "view",
      "type": "function",
      "constant": true
    },
    {
      "inputs": [],
      "name": "owner",
      "outputs": [
        {
          "internalType": "address",
          "name": "",
          "type": "address"
        }
      ],
      "stateMutability": "view",
      "type": "function",
      "constant": true
    },
    {
      "inputs": [],
      "name": "renounceOwnership",
      "outputs": [],
      "stateMutability": "nonpayable",
      "type": "function"
    },
    {
      "inputs": [
        {
          "internalType": "address",
          "name": "newOwner",
          "type": "address"
        }
      ],
      "name": "transferOwnership",
      "outputs": [],
      "stateMutability": "nonpayable",
      "type": "function"
    },
    {
      "inputs": [],
      "name": "getBankArray",
      "outputs": [
        {
          "components": [
            {
              "internalType": "address",
              "name": "_addressBank",
              "type": "address"
            },
            {
              "internalType": "string",
              "name": "_name",
              "type": "string"
            }
          ],
          "internalType": "struct fraudBattle.Banks[]",
          "name": "",
          "type": "tuple[]"
        }
      ],
      "stateMutability": "view",
      "type": "function",
      "constant": true
    },
    {
      "inputs": [],
      "name": "getBusinessArray",
      "outputs": [
        {
          "components": [
            {
              "internalType": "address",
              "name": "_addressBus",
              "type": "address"
            },
            {
              "internalType": "string",
              "name": "_name",
              "type": "string"
            },
            {
              "internalType": "string",
              "name": "_bankAccount",
              "type": "string"
            },
            {
              "internalType": "uint256",
              "name": "_companyNumber",
              "type": "uint256"
            },
            {
              "internalType": "string",
              "name": "_bankName",
              "type": "string"
            }
          ],
          "internalType": "struct fraudBattle.Businesses[]",
          "name": "",
          "type": "tuple[]"
        }
      ],
      "stateMutability": "view",
      "type": "function",
      "constant": true
    },
    {
      "inputs": [
        {
          "internalType": "address",
          "name": "_address",
          "type": "address"
        },
        {
          "internalType": "string",
          "name": "_registeredName",
          "type": "string"
        }
      ],
      "name": "addBankUser",
      "outputs": [],
      "stateMutability": "nonpayable",
      "type": "function"
    },
    {
      "inputs": [
        {
          "internalType": "address",
          "name": "_address",
          "type": "address"
        },
        {
          "internalType": "string",
          "name": "_name",
          "type": "string"
        },
        {
          "internalType": "string",
          "name": "_bankAccount",
          "type": "string"
        },
        {
          "internalType": "uint256",
          "name": "_companyNumber",
          "type": "uint256"
        },
        {
          "internalType": "string",
          "name": "_bankName",
          "type": "string"
        }
      ],
      "name": "addBusiness",
      "outputs": [],
      "stateMutability": "nonpayable",
      "type": "function"
    },
    {
      "inputs": [
        {
          "internalType": "uint256",
          "name": "_providedCompanyNumber",
          "type": "uint256"
        },
        {
          "internalType": "string",
          "name": "_providedBankAccount",
          "type": "string"
        }
      ],
      "name": "bankSignature",
      "outputs": [],
      "stateMutability": "nonpayable",
      "type": "function"
    },
    {
      "inputs": [
        {
          "internalType": "uint256",
          "name": "_providedCompanyNumber",
          "type": "uint256"
        },
        {
          "internalType": "string",
          "name": "_providedBankAccount",
          "type": "string"
        }
      ],
      "name": "busSignature",
      "outputs": [],
      "stateMutability": "nonpayable",
      "type": "function"
    },
    {
      "inputs": [
        {
          "internalType": "uint256",
          "name": "_providedCompanyNumber",
          "type": "uint256"
        },
        {
          "internalType": "string",
          "name": "_providedBankAccount",
          "type": "string"
        }
      ],
      "name": "govSignature",
      "outputs": [],
      "stateMutability": "nonpayable",
      "type": "function"
    },
    {
      "inputs": [
        {
          "internalType": "uint256",
          "name": "_providedCompanyNumber",
          "type": "uint256"
        }
      ],
      "name": "getValidBankAccount",
      "outputs": [
        {
          "internalType": "string",
          "name": "_bankAccount",
          "type": "string"
        }
      ],
      "stateMutability": "view",
      "type": "function",
      "constant": true
    }
  ],
  "bytecode": "0x60806040523480156200001157600080fd5b5062000032620000266200003860201b60201c565b6200004060201b60201c565b62000104565b600033905090565b60008060009054906101000a900473ffffffffffffffffffffffffffffffffffffffff169050816000806101000a81548173ffffffffffffffffffffffffffffffffffffffff021916908373ffffffffffffffffffffffffffffffffffffffff1602179055508173ffffffffffffffffffffffffffffffffffffffff168173ffffffffffffffffffffffffffffffffffffffff167f8be0079c531659141344cd1fd0a4f28419497f9722a3daafe3b4186f6b6457e060405160405180910390a35050565b61265c80620001146000396000f3fe608060405234801561001057600080fd5b50600436106100cf5760003560e01c80638cba40c11161008c5780639cb26b6f116100665780639cb26b6f14610203578063a212847d1461021f578063ee124a2d1461023d578063f2fde38b14610259576100cf565b80638cba40c1146101815780638da5cb5b146101b15780638e974ab9146101cf576100cf565b806303879bf7146100d45780631b46daca146101055780634c741c1114610121578063539113c71461013f578063616688ef1461015b578063715018a614610177575b600080fd5b6100ee60048036038101906100e99190611b74565b610275565b6040516100fc929190612183565b60405180910390f35b61011f600480360381019061011a9190611ab5565b610351565b005b6101296105b6565b604051610136919061223d565b60405180910390f35b61015960048036038101906101549190611b9d565b61082b565b005b61017560048036038101906101709190611b9d565b610aa0565b005b61017f610cef565b005b61019b60048036038101906101969190611b74565b610d77565b6040516101a8919061225f565b60405180910390f35b6101b9610fa0565b6040516101c69190612168565b60405180910390f35b6101e960048036038101906101e49190611b74565b610fc9565b6040516101fa9594939291906121b3565b60405180910390f35b61021d60048036038101906102189190611a61565b6111c7565b005b610227611397565b604051610234919061221b565b60405180910390f35b61025760048036038101906102529190611b9d565b6114de565b005b610273600480360381019061026e9190611a38565b61173f565b005b6007818154811061028557600080fd5b90600052602060002090600202016000915090508060000160009054906101000a900473ffffffffffffffffffffffffffffffffffffffff16908060010180546102ce906124df565b80601f01602080910402602001604051908101604052809291908181526020018280546102fa906124df565b80156103475780601f1061031c57610100808354040283529160200191610347565b820191906000526020600020905b81548152906001019060200180831161032a57829003601f168201915b5050505050905082565b610359611837565b73ffffffffffffffffffffffffffffffffffffffff16610377610fa0565b73ffffffffffffffffffffffffffffffffffffffff16146103cd576040517f08c379a00000000000000000000000000000000000000000000000000000000081526004016103c4906122e1565b60405180910390fd5b600115156002826040516103e1919061213a565b908152602001604051809103902060009054906101000a900460ff1615151461043f576040517f08c379a0000000000000000000000000000000000000000000000000000000008152600401610436906122c1565b60405180910390fd5b60006040518060a001604052808773ffffffffffffffffffffffffffffffffffffffff168152602001868152602001858152602001848152602001838152509050600881908060018154018082558091505060019003906000526020600020906005020160009091909190915060008201518160000160006101000a81548173ffffffffffffffffffffffffffffffffffffffff021916908373ffffffffffffffffffffffffffffffffffffffff160217905550602082015181600101908051906020019061050f929190611903565b50604082015181600201908051906020019061052c929190611903565b50606082015181600301556080820151816004019080519060200190610553929190611903565b5050506001600360008873ffffffffffffffffffffffffffffffffffffffff1673ffffffffffffffffffffffffffffffffffffffff16815260200190815260200160002060006101000a81548160ff021916908315150217905550505050505050565b60606008805480602002602001604051908101604052809291908181526020016000905b8282101561082257838290600052602060002090600502016040518060a00160405290816000820160009054906101000a900473ffffffffffffffffffffffffffffffffffffffff1673ffffffffffffffffffffffffffffffffffffffff1673ffffffffffffffffffffffffffffffffffffffff168152602001600182018054610663906124df565b80601f016020809104026020016040519081016040528092919081815260200182805461068f906124df565b80156106dc5780601f106106b1576101008083540402835291602001916106dc565b820191906000526020600020905b8154815290600101906020018083116106bf57829003601f168201915b505050505081526020016002820180546106f5906124df565b80601f0160208091040260200160405190810160405280929190818152602001828054610721906124df565b801561076e5780601f106107435761010080835404028352916020019161076e565b820191906000526020600020905b81548152906001019060200180831161075157829003601f168201915b5050505050815260200160038201548152602001600482018054610791906124df565b80601f01602080910402602001604051908101604052809291908181526020018280546107bd906124df565b801561080a5780601f106107df5761010080835404028352916020019161080a565b820191906000526020600020905b8154815290600101906020018083116107ed57829003601f168201915b505050505081525050815260200190600101906105da565b50505050905090565b6000600880549050905060005b81811015610a9a576008818154811061087a577f4e487b7100000000000000000000000000000000000000000000000000000000600052603260045260246000fd5b906000526020600020906005020160030154841480156109305750600881815481106108cf577f4e487b7100000000000000000000000000000000000000000000000000000000600052603260045260246000fd5b906000526020600020906005020160000160009054906101000a900473ffffffffffffffffffffffffffffffffffffffff1673ffffffffffffffffffffffffffffffffffffffff163373ffffffffffffffffffffffffffffffffffffffff16145b80156109d1575060088181548110610971577f4e487b7100000000000000000000000000000000000000000000000000000000600052603260045260246000fd5b90600052602060002090600502016002016040516020016109929190612151565b60405160208183030381529060405280519060200120836040516020016109b9919061213a565b60405160208183030381529060405280519060200120145b610a10576040517f08c379a0000000000000000000000000000000000000000000000000000000008152600401610a0790612301565b60405180910390fd5b60016005600060088481548110610a50577f4e487b7100000000000000000000000000000000000000000000000000000000600052603260045260246000fd5b906000526020600020906005020160030154815260200190815260200160002060006101000a81548160ff0219169083151502179055508080610a9290612511565b915050610838565b50505050565b610aa8611837565b73ffffffffffffffffffffffffffffffffffffffff16610ac6610fa0565b73ffffffffffffffffffffffffffffffffffffffff1614610b1c576040517f08c379a0000000000000000000000000000000000000000000000000000000008152600401610b13906122e1565b60405180910390fd5b6000600880549050905060005b81811015610ce95760088181548110610b6b577f4e487b7100000000000000000000000000000000000000000000000000000000600052603260045260246000fd5b90600052602060002090600502016003015484148015610c20575060088181548110610bc0577f4e487b7100000000000000000000000000000000000000000000000000000000600052603260045260246000fd5b9060005260206000209060050201600201604051602001610be19190612151565b6040516020818303038152906040528051906020012083604051602001610c08919061213a565b60405160208183030381529060405280519060200120145b610c5f576040517f08c379a0000000000000000000000000000000000000000000000000000000008152600401610c5690612301565b60405180910390fd5b60016006600060088481548110610c9f577f4e487b7100000000000000000000000000000000000000000000000000000000600052603260045260246000fd5b906000526020600020906005020160030154815260200190815260200160002060006101000a81548160ff0219169083151502179055508080610ce190612511565b915050610b29565b50505050565b610cf7611837565b73ffffffffffffffffffffffffffffffffffffffff16610d15610fa0565b73ffffffffffffffffffffffffffffffffffffffff1614610d6b576040517f08c379a0000000000000000000000000000000000000000000000000000000008152600401610d62906122e1565b60405180910390fd5b610d75600061183f565b565b606060006008805490509050600115156004600085815260200190815260200160002060009054906101000a900460ff161515148015610ddb5750600115156005600085815260200190815260200160002060009054906101000a900460ff161515145b8015610e0b5750600115156006600085815260200190815260200160002060009054906101000a900460ff161515145b610e4a576040517f08c379a0000000000000000000000000000000000000000000000000000000008152600401610e4190612321565b60405180910390fd5b60005b81811015610f98578360088281548110610e90577f4e487b7100000000000000000000000000000000000000000000000000000000600052603260045260246000fd5b9060005260206000209060050201600301541415610f855760088181548110610ee2577f4e487b7100000000000000000000000000000000000000000000000000000000600052603260045260246000fd5b90600052602060002090600502016002018054610efe906124df565b80601f0160208091040260200160405190810160405280929190818152602001828054610f2a906124df565b8015610f775780601f10610f4c57610100808354040283529160200191610f77565b820191906000526020600020905b815481529060010190602001808311610f5a57829003601f168201915b505050505092505050610f9b565b8080610f9090612511565b915050610e4d565b50505b919050565b60008060009054906101000a900473ffffffffffffffffffffffffffffffffffffffff16905090565b60088181548110610fd957600080fd5b90600052602060002090600502016000915090508060000160009054906101000a900473ffffffffffffffffffffffffffffffffffffffff1690806001018054611022906124df565b80601f016020809104026020016040519081016040528092919081815260200182805461104e906124df565b801561109b5780601f106110705761010080835404028352916020019161109b565b820191906000526020600020905b81548152906001019060200180831161107e57829003601f168201915b5050505050908060020180546110b0906124df565b80601f01602080910402602001604051908101604052809291908181526020018280546110dc906124df565b80156111295780601f106110fe57610100808354040283529160200191611129565b820191906000526020600020905b81548152906001019060200180831161110c57829003601f168201915b505050505090806003015490806004018054611144906124df565b80601f0160208091040260200160405190810160405280929190818152602001828054611170906124df565b80156111bd5780601f10611192576101008083540402835291602001916111bd565b820191906000526020600020905b8154815290600101906020018083116111a057829003601f168201915b5050505050905085565b6111cf611837565b73ffffffffffffffffffffffffffffffffffffffff166111ed610fa0565b73ffffffffffffffffffffffffffffffffffffffff1614611243576040517f08c379a000000000000000000000000000000000000000000000000000000000815260040161123a906122e1565b60405180910390fd5b600060405180604001604052808473ffffffffffffffffffffffffffffffffffffffff168152602001838152509050600781908060018154018082558091505060019003906000526020600020906002020160009091909190915060008201518160000160006101000a81548173ffffffffffffffffffffffffffffffffffffffff021916908373ffffffffffffffffffffffffffffffffffffffff1602179055506020820151816001019080519060200190611301929190611903565b50505060018060008573ffffffffffffffffffffffffffffffffffffffff1673ffffffffffffffffffffffffffffffffffffffff16815260200190815260200160002060006101000a81548160ff021916908315150217905550600160028360405161136d919061213a565b908152602001604051809103902060006101000a81548160ff021916908315150217905550505050565b60606007805480602002602001604051908101604052809291908181526020016000905b828210156114d557838290600052602060002090600202016040518060400160405290816000820160009054906101000a900473ffffffffffffffffffffffffffffffffffffffff1673ffffffffffffffffffffffffffffffffffffffff1673ffffffffffffffffffffffffffffffffffffffff168152602001600182018054611444906124df565b80601f0160208091040260200160405190810160405280929190818152602001828054611470906124df565b80156114bd5780601f10611492576101008083540402835291602001916114bd565b820191906000526020600020905b8154815290600101906020018083116114a057829003601f168201915b505050505081525050815260200190600101906113bb565b50505050905090565b33600160003373ffffffffffffffffffffffffffffffffffffffff1673ffffffffffffffffffffffffffffffffffffffff16815260200190815260200160002060009054906101000a900460ff1661156b576040517f08c379a0000000000000000000000000000000000000000000000000000000008152600401611562906122a1565b60405180910390fd5b6000600880549050905060005b8181101561173857600881815481106115ba577f4e487b7100000000000000000000000000000000000000000000000000000000600052603260045260246000fd5b9060005260206000209060050201600301548514801561166f57506008818154811061160f577f4e487b7100000000000000000000000000000000000000000000000000000000600052603260045260246000fd5b90600052602060002090600502016002016040516020016116309190612151565b6040516020818303038152906040528051906020012084604051602001611657919061213a565b60405160208183030381529060405280519060200120145b6116ae576040517f08c379a00000000000000000000000000000000000000000000000000000000081526004016116a590612301565b60405180910390fd5b600160046000600884815481106116ee577f4e487b7100000000000000000000000000000000000000000000000000000000600052603260045260246000fd5b906000526020600020906005020160030154815260200190815260200160002060006101000a81548160ff021916908315150217905550808061173090612511565b915050611578565b5050505050565b611747611837565b73ffffffffffffffffffffffffffffffffffffffff16611765610fa0565b73ffffffffffffffffffffffffffffffffffffffff16146117bb576040517f08c379a00000000000000000000000000000000000000000000000000000000081526004016117b2906122e1565b60405180910390fd5b600073ffffffffffffffffffffffffffffffffffffffff168173ffffffffffffffffffffffffffffffffffffffff16141561182b576040517f08c379a000000000000000000000000000000000000000000000000000000000815260040161182290612281565b60405180910390fd5b6118348161183f565b50565b600033905090565b60008060009054906101000a900473ffffffffffffffffffffffffffffffffffffffff169050816000806101000a81548173ffffffffffffffffffffffffffffffffffffffff021916908373ffffffffffffffffffffffffffffffffffffffff1602179055508173ffffffffffffffffffffffffffffffffffffffff168173ffffffffffffffffffffffffffffffffffffffff167f8be0079c531659141344cd1fd0a4f28419497f9722a3daafe3b4186f6b6457e060405160405180910390a35050565b82805461190f906124df565b90600052602060002090601f0160209004810192826119315760008555611978565b82601f1061194a57805160ff1916838001178555611978565b82800160010185558215611978579182015b8281111561197757825182559160200191906001019061195c565b5b5090506119859190611989565b5090565b5b808211156119a257600081600090555060010161198a565b5090565b60006119b96119b484612372565b612341565b9050828152602081018484840111156119d157600080fd5b6119dc84828561249d565b509392505050565b6000813590506119f3816125f8565b92915050565b600082601f830112611a0a57600080fd5b8135611a1a8482602086016119a6565b91505092915050565b600081359050611a328161260f565b92915050565b600060208284031215611a4a57600080fd5b6000611a58848285016119e4565b91505092915050565b60008060408385031215611a7457600080fd5b6000611a82858286016119e4565b925050602083013567ffffffffffffffff811115611a9f57600080fd5b611aab858286016119f9565b9150509250929050565b600080600080600060a08688031215611acd57600080fd5b6000611adb888289016119e4565b955050602086013567ffffffffffffffff811115611af857600080fd5b611b04888289016119f9565b945050604086013567ffffffffffffffff811115611b2157600080fd5b611b2d888289016119f9565b9350506060611b3e88828901611a23565b925050608086013567ffffffffffffffff811115611b5b57600080fd5b611b67888289016119f9565b9150509295509295909350565b600060208284031215611b8657600080fd5b6000611b9484828501611a23565b91505092915050565b60008060408385031215611bb057600080fd5b6000611bbe85828601611a23565b925050602083013567ffffffffffffffff811115611bdb57600080fd5b611be7858286016119f9565b9150509250929050565b6000611bfd838361205b565b905092915050565b6000611c118383612098565b905092915050565b611c2281612461565b82525050565b611c3181612461565b82525050565b6000611c42826123d7565b611c4c8185612412565b935083602082028501611c5e856123a2565b8060005b85811015611c9a5784840389528151611c7b8582611bf1565b9450611c86836123f8565b925060208a01995050600181019050611c62565b50829750879550505050505092915050565b6000611cb7826123e2565b611cc18185612423565b935083602082028501611cd3856123b2565b8060005b85811015611d0f5784840389528151611cf08582611c05565b9450611cfb83612405565b925060208a01995050600181019050611cd7565b50829750879550505050505092915050565b6000611d2c826123ed565b611d368185612434565b9350611d468185602086016124ac565b611d4f816125e7565b840191505092915050565b6000611d65826123ed565b611d6f8185612445565b9350611d7f8185602086016124ac565b611d88816125e7565b840191505092915050565b6000611d9e826123ed565b611da88185612456565b9350611db88185602086016124ac565b80840191505092915050565b60008154611dd1816124df565b611ddb8186612456565b94506001821660008114611df65760018114611e0757611e3a565b60ff19831686528186019350611e3a565b611e10856123c2565b60005b83811015611e3257815481890152600182019150602081019050611e13565b838801955050505b50505092915050565b6000611e50602683612445565b91507f4f776e61626c653a206e6577206f776e657220697320746865207a65726f206160008301527f64647265737300000000000000000000000000000000000000000000000000006020830152604082019050919050565b6000611eb6600a83612445565b91507f4e6f7420612062616e6b000000000000000000000000000000000000000000006000830152602082019050919050565b6000611ef6603583612445565b91507f556e6b6e6f776e2062616e6b206e616d652c206f722062616e6b206861736e2760008301527f74206265656e20726567697374657265642079657400000000000000000000006020830152604082019050919050565b6000611f5c602083612445565b91507f4f776e61626c653a2063616c6c6572206973206e6f7420746865206f776e65726000830152602082019050919050565b6000611f9c602583612445565b91507f556e6b6e6f776e20636f6d70616e796e756d626572206f722062616e6b20616360008301527f636f756e740000000000000000000000000000000000000000000000000000006020830152604082019050919050565b6000612002603783612445565b91507f5468697320636f6d70616e79206e756d62657220646f65736e2774206861766560008301527f203320646966666572656e74207369676e6174757265730000000000000000006020830152604082019050919050565b60006040830160008301516120736000860182611c19565b506020830151848203602086015261208b8282611d21565b9150508091505092915050565b600060a0830160008301516120b06000860182611c19565b50602083015184820360208601526120c88282611d21565b915050604083015184820360408601526120e28282611d21565b91505060608301516120f7606086018261211c565b506080830151848203608086015261210f8282611d21565b9150508091505092915050565b61212581612493565b82525050565b61213481612493565b82525050565b60006121468284611d93565b915081905092915050565b600061215d8284611dc4565b915081905092915050565b600060208201905061217d6000830184611c28565b92915050565b60006040820190506121986000830185611c28565b81810360208301526121aa8184611d5a565b90509392505050565b600060a0820190506121c86000830188611c28565b81810360208301526121da8187611d5a565b905081810360408301526121ee8186611d5a565b90506121fd606083018561212b565b818103608083015261220f8184611d5a565b90509695505050505050565b600060208201905081810360008301526122358184611c37565b905092915050565b600060208201905081810360008301526122578184611cac565b905092915050565b600060208201905081810360008301526122798184611d5a565b905092915050565b6000602082019050818103600083015261229a81611e43565b9050919050565b600060208201905081810360008301526122ba81611ea9565b9050919050565b600060208201905081810360008301526122da81611ee9565b9050919050565b600060208201905081810360008301526122fa81611f4f565b9050919050565b6000602082019050818103600083015261231a81611f8f565b9050919050565b6000602082019050818103600083015261233a81611ff5565b9050919050565b6000604051905081810181811067ffffffffffffffff82111715612368576123676125b8565b5b8060405250919050565b600067ffffffffffffffff82111561238d5761238c6125b8565b5b601f19601f8301169050602081019050919050565b6000819050602082019050919050565b6000819050602082019050919050565b60008190508160005260206000209050919050565b600081519050919050565b600081519050919050565b600081519050919050565b6000602082019050919050565b6000602082019050919050565b600082825260208201905092915050565b600082825260208201905092915050565b600082825260208201905092915050565b600082825260208201905092915050565b600081905092915050565b600061246c82612473565b9050919050565b600073ffffffffffffffffffffffffffffffffffffffff82169050919050565b6000819050919050565b82818337600083830152505050565b60005b838110156124ca5780820151818401526020810190506124af565b838111156124d9576000848401525b50505050565b600060028204905060018216806124f757607f821691505b6020821081141561250b5761250a612589565b5b50919050565b600061251c82612493565b91507fffffffffffffffffffffffffffffffffffffffffffffffffffffffffffffffff82141561254f5761254e61255a565b5b600182019050919050565b7f4e487b7100000000000000000000000000000000000000000000000000000000600052601160045260246000fd5b7f4e487b7100000000000000000000000000000000000000000000000000000000600052602260045260246000fd5b7f4e487b7100000000000000000000000000000000000000000000000000000000600052604160045260246000fd5b6000601f19601f8301169050919050565b61260181612461565b811461260c57600080fd5b50565b61261881612493565b811461262357600080fd5b5056fea2646970667358221220fe8c2588d36a77955ad448eb14e9aec97891423386b9afc89c8c0d4daf49a82764736f6c63430008000033",
  "immutableReferences": {},
  "source": "// SPDX-License-Identifier: MIT\r\npragma solidity >=0.8.0 <0.9.0;\r\nimport \"@openzeppelin/contracts/access/Ownable.sol\";\r\n\r\ncontract fraudBattle is Ownable {\r\n  \r\n  // address owner  = msg.sender;\r\n\r\n  mapping (address => bool) isBank;\r\n  mapping (string => bool) isBankName;\r\n  mapping (address => bool) isBusiness;\r\n  mapping (uint => bool) isBankSigned;\r\n  mapping (uint => bool) isBusSigned;\r\n  mapping (uint => bool) isGovSigned;\r\n\r\n\r\n  struct Banks  {\r\n    address _addressBank;\r\n    string _name;\r\n  }\r\n\r\n  struct Businesses {\r\n    address _addressBus;\r\n    string _name;\r\n    string _bankAccount;\r\n    uint _companyNumber;\r\n    string _bankName;    \r\n  }\r\n\r\n\r\n  \r\n  Banks[] public bankArray;\r\n  Businesses[] public businessesArray;\r\n    \r\n\r\n  modifier bankOnly(address _bankAddress) {\r\n    require (isBank[msg.sender],\"Not a bank\");\r\n      _;\r\n    }\r\n\r\n  \r\n  \r\n  function getBankArray() public view returns(Banks[] memory) {\r\n    return bankArray;\r\n  }\r\n\r\n  function getBusinessArray() public view returns(Businesses[] memory) {\r\n    return businessesArray;\r\n  }\r\n\r\n  \r\n  function addBankUser(address _address, string memory _registeredName) public onlyOwner {    \r\n    Banks memory banksData = Banks(_address, _registeredName);\r\n    bankArray.push(banksData);\r\n    isBank[_address] = true;\r\n    isBankName[_registeredName] = true;\r\n  }\r\n\r\n  function addBusiness(address _address, string memory _name, string memory _bankAccount, uint _companyNumber, string memory _bankName) public onlyOwner {\r\n      require (isBankName[_bankName] == true, \"Unknown bank name, or bank hasn't been registered yet\");\r\n    Businesses memory busData = Businesses(_address, _name, _bankAccount, _companyNumber, _bankName);\r\n    businessesArray.push(busData);\r\n    isBusiness[_address] = true;\r\n  }\r\n\r\n  //3 parties need to sign a transaction to add the bank account and business name to a new array.\r\n  //This public array can be called with an API call\r\n  function bankSignature(uint _providedCompanyNumber, string memory _providedBankAccount) bankOnly(msg.sender) public {\r\n    \r\n    uint businessesLength = businessesArray.length;\r\n    \r\n    for (uint i = 0; i < businessesLength; i++) {\r\n      require (_providedCompanyNumber == businessesArray[i]._companyNumber && keccak256(abi.encodePacked(_providedBankAccount)) == keccak256(abi.encodePacked(businessesArray[i]._bankAccount)), \"Unknown companynumber or bank account\");\r\n        isBankSigned[businessesArray[i]._companyNumber] = true;\r\n     }\r\n\r\n  }\r\n\r\n\r\n  function busSignature(uint _providedCompanyNumber, string memory _providedBankAccount) public {\r\n    \r\n    uint businessesLength = businessesArray.length;\r\n    for (uint i = 0; i < businessesLength; i++) {\r\n      require (_providedCompanyNumber == businessesArray[i]._companyNumber && msg.sender == businessesArray[i]._addressBus && keccak256(abi.encodePacked(_providedBankAccount)) == keccak256(abi.encodePacked(businessesArray[i]._bankAccount)), \"Unknown companynumber or bank account\");\r\n        isBusSigned[businessesArray[i]._companyNumber] = true;\r\n    }\r\n\r\n  }\r\n\r\n  //for the sake of simplicity, we pretend that the contract owner is able to sign as 'the government'\r\n  function govSignature(uint _providedCompanyNumber,string memory _providedBankAccount) public onlyOwner {\r\n      uint businessesLength = businessesArray.length;\r\n      for (uint i = 0; i < businessesLength; i++) {\r\n        require (_providedCompanyNumber == businessesArray[i]._companyNumber && keccak256(abi.encodePacked(_providedBankAccount)) == keccak256(abi.encodePacked(businessesArray[i]._bankAccount)), \"Unknown companynumber or bank account\");\r\n          isGovSigned[businessesArray[i]._companyNumber] = true;\r\n        }\r\n    \r\n  }\r\n\r\n  function getValidBankAccount(uint _providedCompanyNumber) public view returns(string memory _bankAccount ) {\r\n    uint businessesLength = businessesArray.length;\r\n    \r\n    require(isBankSigned[_providedCompanyNumber] == true && isBusSigned[_providedCompanyNumber] == true && isGovSigned[_providedCompanyNumber] == true, \"This company number doesn't have 3 different signatures\");\r\n    \r\n    for (uint i = 0; i < businessesLength; i++) {\r\n      if (businessesArray[i]._companyNumber == _providedCompanyNumber) {\r\n        return businessesArray[i]._bankAccount;\r\n      }\r\n       \r\n    }\r\n\r\n  }\r\n\r\n//closing brace -> end of contract\r\n}",
  "sourcePath": "C:/Blockchain/projects/blockchain-developer-bootcamp-final-project/contracts/fraudBattle.sol",
  "compiler": {
    "name": "solc",
    "version": "0.8.0+commit.c7dfd78e.Emscripten.clang"
  },
  "schemaVersion": "3.4.1",
  "updatedAt": "2021-12-07T14:08:16.261Z",
  "networkType": "ethereum",
  "devdoc": {
    "kind": "dev",
    "methods": {
      "owner()": {
        "details": "Returns the address of the current owner."
      },
      "renounceOwnership()": {
        "details": "Leaves the contract without owner. It will not be possible to call `onlyOwner` functions anymore. Can only be called by the current owner. NOTE: Renouncing ownership will leave the contract without an owner, thereby removing any functionality that is only available to the owner."
      },
      "transferOwnership(address)": {
        "details": "Transfers ownership of the contract to a new account (`newOwner`). Can only be called by the current owner."
      }
    },
    "version": 1
  },
  "userdoc": {
    "kind": "user",
    "methods": {},
    "version": 1
  }
}