{
  "contractName": "fraudBattle",
  "abi": [
    {
      "anonymous": false,
      "inputs": [
        {
          "indexed": true,
          "internalType": "address",
          "name": "previousOwner",
          "type": "address"
        },
        {
          "indexed": true,
          "internalType": "address",
          "name": "newOwner",
          "type": "address"
        }
      ],
      "name": "OwnershipTransferred",
      "type": "event"
    },
    {
      "inputs": [
        {
          "internalType": "uint256",
          "name": "",
          "type": "uint256"
        }
      ],
      "name": "bankArray",
      "outputs": [
        {
          "internalType": "address",
          "name": "_addressBank",
          "type": "address"
        },
        {
          "internalType": "string",
          "name": "_name",
          "type": "string"
        }
      ],
      "stateMutability": "view",
      "type": "function",
      "constant": true
    },
    {
      "inputs": [
        {
          "internalType": "uint256",
          "name": "",
          "type": "uint256"
        }
      ],
      "name": "businessesArray",
      "outputs": [
        {
          "internalType": "address",
          "name": "_addressBus",
          "type": "address"
        },
        {
          "internalType": "string",
          "name": "_name",
          "type": "string"
        },
        {
          "internalType": "string",
          "name": "_bankAccount",
          "type": "string"
        },
        {
          "internalType": "uint256",
          "name": "_companyNumber",
          "type": "uint256"
        },
        {
          "internalType": "string",
          "name": "_bankName",
          "type": "string"
        }
      ],
      "stateMutability": "view",
      "type": "function",
      "constant": true
    },
    {
      "inputs": [],
      "name": "owner",
      "outputs": [
        {
          "internalType": "address",
          "name": "",
          "type": "address"
        }
      ],
      "stateMutability": "view",
      "type": "function",
      "constant": true
    },
    {
      "inputs": [],
      "name": "renounceOwnership",
      "outputs": [],
      "stateMutability": "nonpayable",
      "type": "function"
    },
    {
      "inputs": [
        {
          "internalType": "address",
          "name": "newOwner",
          "type": "address"
        }
      ],
      "name": "transferOwnership",
      "outputs": [],
      "stateMutability": "nonpayable",
      "type": "function"
    },
    {
      "inputs": [],
      "name": "getBankArray",
      "outputs": [
        {
          "components": [
            {
              "internalType": "address",
              "name": "_addressBank",
              "type": "address"
            },
            {
              "internalType": "string",
              "name": "_name",
              "type": "string"
            }
          ],
          "internalType": "struct fraudBattle.Banks[]",
          "name": "",
          "type": "tuple[]"
        }
      ],
      "stateMutability": "view",
      "type": "function",
      "constant": true
    },
    {
      "inputs": [],
      "name": "getBusinessArray",
      "outputs": [
        {
          "components": [
            {
              "internalType": "address",
              "name": "_addressBus",
              "type": "address"
            },
            {
              "internalType": "string",
              "name": "_name",
              "type": "string"
            },
            {
              "internalType": "string",
              "name": "_bankAccount",
              "type": "string"
            },
            {
              "internalType": "uint256",
              "name": "_companyNumber",
              "type": "uint256"
            },
            {
              "internalType": "string",
              "name": "_bankName",
              "type": "string"
            }
          ],
          "internalType": "struct fraudBattle.Businesses[]",
          "name": "",
          "type": "tuple[]"
        }
      ],
      "stateMutability": "view",
      "type": "function",
      "constant": true
    },
    {
      "inputs": [
        {
          "internalType": "address",
          "name": "_address",
          "type": "address"
        },
        {
          "internalType": "string",
          "name": "_registeredName",
          "type": "string"
        }
      ],
      "name": "addBankUser",
      "outputs": [],
      "stateMutability": "nonpayable",
      "type": "function"
    },
    {
      "inputs": [
        {
          "internalType": "address",
          "name": "_address",
          "type": "address"
        },
        {
          "internalType": "string",
          "name": "_name",
          "type": "string"
        },
        {
          "internalType": "string",
          "name": "_bankAccount",
          "type": "string"
        },
        {
          "internalType": "uint256",
          "name": "_companyNumber",
          "type": "uint256"
        },
        {
          "internalType": "string",
          "name": "_bankName",
          "type": "string"
        }
      ],
      "name": "addBusiness",
      "outputs": [],
      "stateMutability": "nonpayable",
      "type": "function"
    },
    {
      "inputs": [
        {
          "internalType": "uint256",
          "name": "_providedCompanyNumber",
          "type": "uint256"
        },
        {
          "internalType": "string",
          "name": "_providedBankAccount",
          "type": "string"
        }
      ],
      "name": "bankSignature",
      "outputs": [],
      "stateMutability": "nonpayable",
      "type": "function"
    },
    {
      "inputs": [
        {
          "internalType": "uint256",
          "name": "_providedCompanyNumber",
          "type": "uint256"
        },
        {
          "internalType": "string",
          "name": "_providedBankAccount",
          "type": "string"
        }
      ],
      "name": "busSignature",
      "outputs": [],
      "stateMutability": "nonpayable",
      "type": "function"
    },
    {
      "inputs": [
        {
          "internalType": "uint256",
          "name": "_providedCompanyNumber",
          "type": "uint256"
        },
        {
          "internalType": "string",
          "name": "_providedBankAccount",
          "type": "string"
        }
      ],
      "name": "govSignature",
      "outputs": [],
      "stateMutability": "nonpayable",
      "type": "function"
    },
    {
      "inputs": [
        {
          "internalType": "uint256",
          "name": "_providedCompanyNumber",
          "type": "uint256"
        }
      ],
      "name": "getValidBankAccount",
      "outputs": [
        {
          "internalType": "string",
          "name": "_bankAccount",
          "type": "string"
        }
      ],
      "stateMutability": "view",
      "type": "function",
      "constant": true
    }
  ],
  "bytecode": "0x60806040523480156200001157600080fd5b5062000032620000266200003860201b60201c565b6200004060201b60201c565b62000104565b600033905090565b60008060009054906101000a900473ffffffffffffffffffffffffffffffffffffffff169050816000806101000a81548173ffffffffffffffffffffffffffffffffffffffff021916908373ffffffffffffffffffffffffffffffffffffffff1602179055508173ffffffffffffffffffffffffffffffffffffffff168173ffffffffffffffffffffffffffffffffffffffff167f8be0079c531659141344cd1fd0a4f28419497f9722a3daafe3b4186f6b6457e060405160405180910390a35050565b6125e080620001146000396000f3fe608060405234801561001057600080fd5b50600436106100cf5760003560e01c80638cba40c11161008c5780639cb26b6f116100665780639cb26b6f14610203578063a212847d1461021f578063ee124a2d1461023d578063f2fde38b14610259576100cf565b80638cba40c1146101815780638da5cb5b146101b15780638e974ab9146101cf576100cf565b806303879bf7146100d45780631b46daca146101055780634c741c1114610121578063539113c71461013f578063616688ef1461015b578063715018a614610177575b600080fd5b6100ee60048036038101906100e99190611af8565b610275565b6040516100fc929190612107565b60405180910390f35b61011f600480360381019061011a9190611a39565b610351565b005b61012961053a565b60405161013691906121c1565b60405180910390f35b61015960048036038101906101549190611b21565b6107af565b005b61017560048036038101906101709190611b21565b610a24565b005b61017f610c73565b005b61019b60048036038101906101969190611af8565b610cfb565b6040516101a891906121e3565b60405180910390f35b6101b9610f24565b6040516101c691906120ec565b60405180910390f35b6101e960048036038101906101e49190611af8565b610f4d565b6040516101fa959493929190612137565b60405180910390f35b61021d600480360381019061021891906119e5565b61114b565b005b61022761131b565b604051610234919061219f565b60405180910390f35b61025760048036038101906102529190611b21565b611462565b005b610273600480360381019061026e91906119bc565b6116c3565b005b6007818154811061028557600080fd5b90600052602060002090600202016000915090508060000160009054906101000a900473ffffffffffffffffffffffffffffffffffffffff16908060010180546102ce90612463565b80601f01602080910402602001604051908101604052809291908181526020018280546102fa90612463565b80156103475780601f1061031c57610100808354040283529160200191610347565b820191906000526020600020905b81548152906001019060200180831161032a57829003601f168201915b5050505050905082565b6001151560028260405161036591906120be565b908152602001604051809103902060009054906101000a900460ff161515146103c3576040517f08c379a00000000000000000000000000000000000000000000000000000000081526004016103ba90612245565b60405180910390fd5b60006040518060a001604052808773ffffffffffffffffffffffffffffffffffffffff168152602001868152602001858152602001848152602001838152509050600881908060018154018082558091505060019003906000526020600020906005020160009091909190915060008201518160000160006101000a81548173ffffffffffffffffffffffffffffffffffffffff021916908373ffffffffffffffffffffffffffffffffffffffff1602179055506020820151816001019080519060200190610493929190611887565b5060408201518160020190805190602001906104b0929190611887565b506060820151816003015560808201518160040190805190602001906104d7929190611887565b5050506001600360008873ffffffffffffffffffffffffffffffffffffffff1673ffffffffffffffffffffffffffffffffffffffff16815260200190815260200160002060006101000a81548160ff021916908315150217905550505050505050565b60606008805480602002602001604051908101604052809291908181526020016000905b828210156107a657838290600052602060002090600502016040518060a00160405290816000820160009054906101000a900473ffffffffffffffffffffffffffffffffffffffff1673ffffffffffffffffffffffffffffffffffffffff1673ffffffffffffffffffffffffffffffffffffffff1681526020016001820180546105e790612463565b80601f016020809104026020016040519081016040528092919081815260200182805461061390612463565b80156106605780601f1061063557610100808354040283529160200191610660565b820191906000526020600020905b81548152906001019060200180831161064357829003601f168201915b5050505050815260200160028201805461067990612463565b80601f01602080910402602001604051908101604052809291908181526020018280546106a590612463565b80156106f25780601f106106c7576101008083540402835291602001916106f2565b820191906000526020600020905b8154815290600101906020018083116106d557829003601f168201915b505050505081526020016003820154815260200160048201805461071590612463565b80601f016020809104026020016040519081016040528092919081815260200182805461074190612463565b801561078e5780601f106107635761010080835404028352916020019161078e565b820191906000526020600020905b81548152906001019060200180831161077157829003601f168201915b5050505050815250508152602001906001019061055e565b50505050905090565b6000600880549050905060005b81811015610a1e57600881815481106107fe577f4e487b7100000000000000000000000000000000000000000000000000000000600052603260045260246000fd5b906000526020600020906005020160030154841480156108b4575060088181548110610853577f4e487b7100000000000000000000000000000000000000000000000000000000600052603260045260246000fd5b906000526020600020906005020160000160009054906101000a900473ffffffffffffffffffffffffffffffffffffffff1673ffffffffffffffffffffffffffffffffffffffff163373ffffffffffffffffffffffffffffffffffffffff16145b80156109555750600881815481106108f5577f4e487b7100000000000000000000000000000000000000000000000000000000600052603260045260246000fd5b906000526020600020906005020160020160405160200161091691906120d5565b604051602081830303815290604052805190602001208360405160200161093d91906120be565b60405160208183030381529060405280519060200120145b610994576040517f08c379a000000000000000000000000000000000000000000000000000000000815260040161098b90612285565b60405180910390fd5b600160056000600884815481106109d4577f4e487b7100000000000000000000000000000000000000000000000000000000600052603260045260246000fd5b906000526020600020906005020160030154815260200190815260200160002060006101000a81548160ff0219169083151502179055508080610a1690612495565b9150506107bc565b50505050565b610a2c6117bb565b73ffffffffffffffffffffffffffffffffffffffff16610a4a610f24565b73ffffffffffffffffffffffffffffffffffffffff1614610aa0576040517f08c379a0000000000000000000000000000000000000000000000000000000008152600401610a9790612265565b60405180910390fd5b6000600880549050905060005b81811015610c6d5760088181548110610aef577f4e487b7100000000000000000000000000000000000000000000000000000000600052603260045260246000fd5b90600052602060002090600502016003015484148015610ba4575060088181548110610b44577f4e487b7100000000000000000000000000000000000000000000000000000000600052603260045260246000fd5b9060005260206000209060050201600201604051602001610b6591906120d5565b6040516020818303038152906040528051906020012083604051602001610b8c91906120be565b60405160208183030381529060405280519060200120145b610be3576040517f08c379a0000000000000000000000000000000000000000000000000000000008152600401610bda90612285565b60405180910390fd5b60016006600060088481548110610c23577f4e487b7100000000000000000000000000000000000000000000000000000000600052603260045260246000fd5b906000526020600020906005020160030154815260200190815260200160002060006101000a81548160ff0219169083151502179055508080610c6590612495565b915050610aad565b50505050565b610c7b6117bb565b73ffffffffffffffffffffffffffffffffffffffff16610c99610f24565b73ffffffffffffffffffffffffffffffffffffffff1614610cef576040517f08c379a0000000000000000000000000000000000000000000000000000000008152600401610ce690612265565b60405180910390fd5b610cf960006117c3565b565b606060006008805490509050600115156004600085815260200190815260200160002060009054906101000a900460ff161515148015610d5f5750600115156005600085815260200190815260200160002060009054906101000a900460ff161515145b8015610d8f5750600115156006600085815260200190815260200160002060009054906101000a900460ff161515145b610dce576040517f08c379a0000000000000000000000000000000000000000000000000000000008152600401610dc5906122a5565b60405180910390fd5b60005b81811015610f1c578360088281548110610e14577f4e487b7100000000000000000000000000000000000000000000000000000000600052603260045260246000fd5b9060005260206000209060050201600301541415610f095760088181548110610e66577f4e487b7100000000000000000000000000000000000000000000000000000000600052603260045260246000fd5b90600052602060002090600502016002018054610e8290612463565b80601f0160208091040260200160405190810160405280929190818152602001828054610eae90612463565b8015610efb5780601f10610ed057610100808354040283529160200191610efb565b820191906000526020600020905b815481529060010190602001808311610ede57829003601f168201915b505050505092505050610f1f565b8080610f1490612495565b915050610dd1565b50505b919050565b60008060009054906101000a900473ffffffffffffffffffffffffffffffffffffffff16905090565b60088181548110610f5d57600080fd5b90600052602060002090600502016000915090508060000160009054906101000a900473ffffffffffffffffffffffffffffffffffffffff1690806001018054610fa690612463565b80601f0160208091040260200160405190810160405280929190818152602001828054610fd290612463565b801561101f5780601f10610ff45761010080835404028352916020019161101f565b820191906000526020600020905b81548152906001019060200180831161100257829003601f168201915b50505050509080600201805461103490612463565b80601f016020809104026020016040519081016040528092919081815260200182805461106090612463565b80156110ad5780601f10611082576101008083540402835291602001916110ad565b820191906000526020600020905b81548152906001019060200180831161109057829003601f168201915b5050505050908060030154908060040180546110c890612463565b80601f01602080910402602001604051908101604052809291908181526020018280546110f490612463565b80156111415780601f1061111657610100808354040283529160200191611141565b820191906000526020600020905b81548152906001019060200180831161112457829003601f168201915b5050505050905085565b6111536117bb565b73ffffffffffffffffffffffffffffffffffffffff16611171610f24565b73ffffffffffffffffffffffffffffffffffffffff16146111c7576040517f08c379a00000000000000000000000000000000000000000000000000000000081526004016111be90612265565b60405180910390fd5b600060405180604001604052808473ffffffffffffffffffffffffffffffffffffffff168152602001838152509050600781908060018154018082558091505060019003906000526020600020906002020160009091909190915060008201518160000160006101000a81548173ffffffffffffffffffffffffffffffffffffffff021916908373ffffffffffffffffffffffffffffffffffffffff1602179055506020820151816001019080519060200190611285929190611887565b50505060018060008573ffffffffffffffffffffffffffffffffffffffff1673ffffffffffffffffffffffffffffffffffffffff16815260200190815260200160002060006101000a81548160ff02191690831515021790555060016002836040516112f191906120be565b908152602001604051809103902060006101000a81548160ff021916908315150217905550505050565b60606007805480602002602001604051908101604052809291908181526020016000905b8282101561145957838290600052602060002090600202016040518060400160405290816000820160009054906101000a900473ffffffffffffffffffffffffffffffffffffffff1673ffffffffffffffffffffffffffffffffffffffff1673ffffffffffffffffffffffffffffffffffffffff1681526020016001820180546113c890612463565b80601f01602080910402602001604051908101604052809291908181526020018280546113f490612463565b80156114415780601f1061141657610100808354040283529160200191611441565b820191906000526020600020905b81548152906001019060200180831161142457829003601f168201915b5050505050815250508152602001906001019061133f565b50505050905090565b33600160003373ffffffffffffffffffffffffffffffffffffffff1673ffffffffffffffffffffffffffffffffffffffff16815260200190815260200160002060009054906101000a900460ff166114ef576040517f08c379a00000000000000000000000000000000000000000000000000000000081526004016114e690612225565b60405180910390fd5b6000600880549050905060005b818110156116bc576008818154811061153e577f4e487b7100000000000000000000000000000000000000000000000000000000600052603260045260246000fd5b906000526020600020906005020160030154851480156115f3575060088181548110611593577f4e487b7100000000000000000000000000000000000000000000000000000000600052603260045260246000fd5b90600052602060002090600502016002016040516020016115b491906120d5565b60405160208183030381529060405280519060200120846040516020016115db91906120be565b60405160208183030381529060405280519060200120145b611632576040517f08c379a000000000000000000000000000000000000000000000000000000000815260040161162990612285565b60405180910390fd5b60016004600060088481548110611672577f4e487b7100000000000000000000000000000000000000000000000000000000600052603260045260246000fd5b906000526020600020906005020160030154815260200190815260200160002060006101000a81548160ff02191690831515021790555080806116b490612495565b9150506114fc565b5050505050565b6116cb6117bb565b73ffffffffffffffffffffffffffffffffffffffff166116e9610f24565b73ffffffffffffffffffffffffffffffffffffffff161461173f576040517f08c379a000000000000000000000000000000000000000000000000000000000815260040161173690612265565b60405180910390fd5b600073ffffffffffffffffffffffffffffffffffffffff168173ffffffffffffffffffffffffffffffffffffffff1614156117af576040517f08c379a00000000000000000000000000000000000000000000000000000000081526004016117a690612205565b60405180910390fd5b6117b8816117c3565b50565b600033905090565b60008060009054906101000a900473ffffffffffffffffffffffffffffffffffffffff169050816000806101000a81548173ffffffffffffffffffffffffffffffffffffffff021916908373ffffffffffffffffffffffffffffffffffffffff1602179055508173ffffffffffffffffffffffffffffffffffffffff168173ffffffffffffffffffffffffffffffffffffffff167f8be0079c531659141344cd1fd0a4f28419497f9722a3daafe3b4186f6b6457e060405160405180910390a35050565b82805461189390612463565b90600052602060002090601f0160209004810192826118b557600085556118fc565b82601f106118ce57805160ff19168380011785556118fc565b828001600101855582156118fc579182015b828111156118fb5782518255916020019190600101906118e0565b5b509050611909919061190d565b5090565b5b8082111561192657600081600090555060010161190e565b5090565b600061193d611938846122f6565b6122c5565b90508281526020810184848401111561195557600080fd5b611960848285612421565b509392505050565b6000813590506119778161257c565b92915050565b600082601f83011261198e57600080fd5b813561199e84826020860161192a565b91505092915050565b6000813590506119b681612593565b92915050565b6000602082840312156119ce57600080fd5b60006119dc84828501611968565b91505092915050565b600080604083850312156119f857600080fd5b6000611a0685828601611968565b925050602083013567ffffffffffffffff811115611a2357600080fd5b611a2f8582860161197d565b9150509250929050565b600080600080600060a08688031215611a5157600080fd5b6000611a5f88828901611968565b955050602086013567ffffffffffffffff811115611a7c57600080fd5b611a888882890161197d565b945050604086013567ffffffffffffffff811115611aa557600080fd5b611ab18882890161197d565b9350506060611ac2888289016119a7565b925050608086013567ffffffffffffffff811115611adf57600080fd5b611aeb8882890161197d565b9150509295509295909350565b600060208284031215611b0a57600080fd5b6000611b18848285016119a7565b91505092915050565b60008060408385031215611b3457600080fd5b6000611b42858286016119a7565b925050602083013567ffffffffffffffff811115611b5f57600080fd5b611b6b8582860161197d565b9150509250929050565b6000611b818383611fdf565b905092915050565b6000611b95838361201c565b905092915050565b611ba6816123e5565b82525050565b611bb5816123e5565b82525050565b6000611bc68261235b565b611bd08185612396565b935083602082028501611be285612326565b8060005b85811015611c1e5784840389528151611bff8582611b75565b9450611c0a8361237c565b925060208a01995050600181019050611be6565b50829750879550505050505092915050565b6000611c3b82612366565b611c4581856123a7565b935083602082028501611c5785612336565b8060005b85811015611c935784840389528151611c748582611b89565b9450611c7f83612389565b925060208a01995050600181019050611c5b565b50829750879550505050505092915050565b6000611cb082612371565b611cba81856123b8565b9350611cca818560208601612430565b611cd38161256b565b840191505092915050565b6000611ce982612371565b611cf381856123c9565b9350611d03818560208601612430565b611d0c8161256b565b840191505092915050565b6000611d2282612371565b611d2c81856123da565b9350611d3c818560208601612430565b80840191505092915050565b60008154611d5581612463565b611d5f81866123da565b94506001821660008114611d7a5760018114611d8b57611dbe565b60ff19831686528186019350611dbe565b611d9485612346565b60005b83811015611db657815481890152600182019150602081019050611d97565b838801955050505b50505092915050565b6000611dd46026836123c9565b91507f4f776e61626c653a206e6577206f776e657220697320746865207a65726f206160008301527f64647265737300000000000000000000000000000000000000000000000000006020830152604082019050919050565b6000611e3a600a836123c9565b91507f4e6f7420612062616e6b000000000000000000000000000000000000000000006000830152602082019050919050565b6000611e7a6035836123c9565b91507f556e6b6e6f776e2062616e6b206e616d652c206f722062616e6b206861736e2760008301527f74206265656e20726567697374657265642079657400000000000000000000006020830152604082019050919050565b6000611ee06020836123c9565b91507f4f776e61626c653a2063616c6c6572206973206e6f7420746865206f776e65726000830152602082019050919050565b6000611f206025836123c9565b91507f556e6b6e6f776e20636f6d70616e796e756d626572206f722062616e6b20616360008301527f636f756e740000000000000000000000000000000000000000000000000000006020830152604082019050919050565b6000611f866037836123c9565b91507f5468697320636f6d70616e79206e756d62657220646f65736e2774206861766560008301527f203320646966666572656e74207369676e6174757265730000000000000000006020830152604082019050919050565b6000604083016000830151611ff76000860182611b9d565b506020830151848203602086015261200f8282611ca5565b9150508091505092915050565b600060a0830160008301516120346000860182611b9d565b506020830151848203602086015261204c8282611ca5565b915050604083015184820360408601526120668282611ca5565b915050606083015161207b60608601826120a0565b50608083015184820360808601526120938282611ca5565b9150508091505092915050565b6120a981612417565b82525050565b6120b881612417565b82525050565b60006120ca8284611d17565b915081905092915050565b60006120e18284611d48565b915081905092915050565b60006020820190506121016000830184611bac565b92915050565b600060408201905061211c6000830185611bac565b818103602083015261212e8184611cde565b90509392505050565b600060a08201905061214c6000830188611bac565b818103602083015261215e8187611cde565b905081810360408301526121728186611cde565b905061218160608301856120af565b81810360808301526121938184611cde565b90509695505050505050565b600060208201905081810360008301526121b98184611bbb565b905092915050565b600060208201905081810360008301526121db8184611c30565b905092915050565b600060208201905081810360008301526121fd8184611cde565b905092915050565b6000602082019050818103600083015261221e81611dc7565b9050919050565b6000602082019050818103600083015261223e81611e2d565b9050919050565b6000602082019050818103600083015261225e81611e6d565b9050919050565b6000602082019050818103600083015261227e81611ed3565b9050919050565b6000602082019050818103600083015261229e81611f13565b9050919050565b600060208201905081810360008301526122be81611f79565b9050919050565b6000604051905081810181811067ffffffffffffffff821117156122ec576122eb61253c565b5b8060405250919050565b600067ffffffffffffffff8211156123115761231061253c565b5b601f19601f8301169050602081019050919050565b6000819050602082019050919050565b6000819050602082019050919050565b60008190508160005260206000209050919050565b600081519050919050565b600081519050919050565b600081519050919050565b6000602082019050919050565b6000602082019050919050565b600082825260208201905092915050565b600082825260208201905092915050565b600082825260208201905092915050565b600082825260208201905092915050565b600081905092915050565b60006123f0826123f7565b9050919050565b600073ffffffffffffffffffffffffffffffffffffffff82169050919050565b6000819050919050565b82818337600083830152505050565b60005b8381101561244e578082015181840152602081019050612433565b8381111561245d576000848401525b50505050565b6000600282049050600182168061247b57607f821691505b6020821081141561248f5761248e61250d565b5b50919050565b60006124a082612417565b91507fffffffffffffffffffffffffffffffffffffffffffffffffffffffffffffffff8214156124d3576124d26124de565b5b600182019050919050565b7f4e487b7100000000000000000000000000000000000000000000000000000000600052601160045260246000fd5b7f4e487b7100000000000000000000000000000000000000000000000000000000600052602260045260246000fd5b7f4e487b7100000000000000000000000000000000000000000000000000000000600052604160045260246000fd5b6000601f19601f8301169050919050565b612585816123e5565b811461259057600080fd5b50565b61259c81612417565b81146125a757600080fd5b5056fea2646970667358221220e0daf962b72786479d874aa1ab22ca363d6ebd04e55446b0aff90f6f9a7cc23664736f6c63430008000033",
  "immutableReferences": {},
  "source": "// SPDX-License-Identifier: MIT\r\npragma solidity >=0.8.0 <0.9.0;\r\nimport \"@openzeppelin/contracts/access/Ownable.sol\";\r\n\r\ncontract fraudBattle is Ownable {\r\n  \r\n  \r\n\r\n  mapping (address => bool) isBank;\r\n  mapping (string => bool) isBankName;\r\n  mapping (address => bool) isBusiness;\r\n  mapping (uint => bool) isBankSigned;\r\n  mapping (uint => bool) isBusSigned;\r\n  mapping (uint => bool) isGovSigned;\r\n\r\n\r\n  struct Banks  {\r\n    address _addressBank;\r\n    string _name;\r\n  }\r\n\r\n  struct Businesses {\r\n    address _addressBus;\r\n    string _name;\r\n    string _bankAccount;\r\n    uint _companyNumber;\r\n    string _bankName;    \r\n  }\r\n\r\n\r\n  \r\n  Banks[] public bankArray;\r\n  Businesses[] public businessesArray;\r\n    \r\n\r\n  modifier bankOnly(address _bankAddress) {\r\n    require (isBank[msg.sender],\"Not a bank\");\r\n      _;\r\n    }\r\n  \r\n  function getBankArray() public view returns(Banks[] memory) {\r\n    return bankArray;\r\n  }\r\n\r\n  function getBusinessArray() public view returns(Businesses[] memory) {\r\n    return businessesArray;\r\n  }\r\n\r\n\r\n  function addBankUser(address _address, string memory _registeredName) public onlyOwner {    \r\n    Banks memory banksData = Banks(_address, _registeredName);\r\n    bankArray.push(banksData);\r\n    isBank[_address] = true;\r\n    isBankName[_registeredName] = true;\r\n  }\r\n\r\n  function addBusiness(address _address, string memory _name, string memory _bankAccount, uint _companyNumber, string memory _bankName) public {\r\n      require (isBankName[_bankName] == true, \"Unknown bank name, or bank hasn't been registered yet\");\r\n    Businesses memory busData = Businesses(_address, _name, _bankAccount, _companyNumber, _bankName);\r\n    businessesArray.push(busData);\r\n    isBusiness[_address] = true;\r\n  }\r\n\r\n  //3 parties need to sign a transaction to add the bank account and business name to a new array.\r\n  //This public array can be called with an API call\r\n  function bankSignature(uint _providedCompanyNumber, string memory _providedBankAccount) bankOnly(msg.sender) public {\r\n    \r\n    uint businessesLength = businessesArray.length;\r\n    for (uint i = 0; i < businessesLength; i++) {\r\n      require (_providedCompanyNumber == businessesArray[i]._companyNumber && keccak256(abi.encodePacked(_providedBankAccount)) == keccak256(abi.encodePacked(businessesArray[i]._bankAccount)), \"Unknown companynumber or bank account\");\r\n        isBankSigned[businessesArray[i]._companyNumber] = true;\r\n     }\r\n\r\n  }\r\n\r\n\r\n  function busSignature(uint _providedCompanyNumber, string memory _providedBankAccount) public {\r\n    \r\n    uint businessesLength = businessesArray.length;\r\n    for (uint i = 0; i < businessesLength; i++) {\r\n      require (_providedCompanyNumber == businessesArray[i]._companyNumber && msg.sender == businessesArray[i]._addressBus && keccak256(abi.encodePacked(_providedBankAccount)) == keccak256(abi.encodePacked(businessesArray[i]._bankAccount)), \"Unknown companynumber or bank account\");\r\n        isBusSigned[businessesArray[i]._companyNumber] = true;\r\n    }\r\n\r\n  }\r\n\r\n  //for the sake of simplicity, we pretend that the contract owner is able to sign as 'the government'\r\n  function govSignature(uint _providedCompanyNumber,string memory _providedBankAccount) public onlyOwner {\r\n    uint businessesLength = businessesArray.length;\r\n    for (uint i = 0; i < businessesLength; i++) {\r\n      require (_providedCompanyNumber == businessesArray[i]._companyNumber && keccak256(abi.encodePacked(_providedBankAccount)) == keccak256(abi.encodePacked(businessesArray[i]._bankAccount)), \"Unknown companynumber or bank account\");\r\n        isGovSigned[businessesArray[i]._companyNumber] = true;\r\n      }\r\n\r\n  }\r\n\r\n  function getValidBankAccount(uint _providedCompanyNumber) public view returns(string memory _bankAccount ) {\r\n    uint businessesLength = businessesArray.length;\r\n    \r\n    require(isBankSigned[_providedCompanyNumber] == true && isBusSigned[_providedCompanyNumber] == true && isGovSigned[_providedCompanyNumber] == true, \"This company number doesn't have 3 different signatures\");\r\n    \r\n    for (uint i = 0; i < businessesLength; i++) {\r\n      if (businessesArray[i]._companyNumber == _providedCompanyNumber) {\r\n        return businessesArray[i]._bankAccount;\r\n      }\r\n       \r\n    }\r\n\r\n  }\r\n\r\n//closing brace -> end of contract\r\n}",
  "sourcePath": "C:/Blockchain/projects/blockchain-developer-bootcamp-final-project/contracts/fraudBattle.sol",
  "compiler": {
    "name": "solc",
    "version": "0.8.0+commit.c7dfd78e.Emscripten.clang"
  },
  "schemaVersion": "3.4.1",
  "updatedAt": "2021-11-30T13:35:04.639Z",
  "networkType": "ethereum",
  "devdoc": {
    "kind": "dev",
    "methods": {
      "owner()": {
        "details": "Returns the address of the current owner."
      },
      "renounceOwnership()": {
        "details": "Leaves the contract without owner. It will not be possible to call `onlyOwner` functions anymore. Can only be called by the current owner. NOTE: Renouncing ownership will leave the contract without an owner, thereby removing any functionality that is only available to the owner."
      },
      "transferOwnership(address)": {
        "details": "Transfers ownership of the contract to a new account (`newOwner`). Can only be called by the current owner."
      }
    },
    "version": 1
  },
  "userdoc": {
    "kind": "user",
    "methods": {},
    "version": 1
  }
}