{
  "contractName": "fraudBattle",
  "abi": [
    {
      "inputs": [],
      "stateMutability": "nonpayable",
      "type": "constructor"
    },
    {
      "anonymous": false,
      "inputs": [
        {
          "indexed": true,
          "internalType": "address",
          "name": "previousOwner",
          "type": "address"
        },
        {
          "indexed": true,
          "internalType": "address",
          "name": "newOwner",
          "type": "address"
        }
      ],
      "name": "OwnershipTransferred",
      "type": "event"
    },
    {
      "anonymous": false,
      "inputs": [
        {
          "indexed": true,
          "internalType": "bytes32",
          "name": "role",
          "type": "bytes32"
        },
        {
          "indexed": true,
          "internalType": "bytes32",
          "name": "previousAdminRole",
          "type": "bytes32"
        },
        {
          "indexed": true,
          "internalType": "bytes32",
          "name": "newAdminRole",
          "type": "bytes32"
        }
      ],
      "name": "RoleAdminChanged",
      "type": "event"
    },
    {
      "anonymous": false,
      "inputs": [
        {
          "indexed": true,
          "internalType": "bytes32",
          "name": "role",
          "type": "bytes32"
        },
        {
          "indexed": true,
          "internalType": "address",
          "name": "account",
          "type": "address"
        },
        {
          "indexed": true,
          "internalType": "address",
          "name": "sender",
          "type": "address"
        }
      ],
      "name": "RoleGranted",
      "type": "event"
    },
    {
      "anonymous": false,
      "inputs": [
        {
          "indexed": true,
          "internalType": "bytes32",
          "name": "role",
          "type": "bytes32"
        },
        {
          "indexed": true,
          "internalType": "address",
          "name": "account",
          "type": "address"
        },
        {
          "indexed": true,
          "internalType": "address",
          "name": "sender",
          "type": "address"
        }
      ],
      "name": "RoleRevoked",
      "type": "event"
    },
    {
      "inputs": [],
      "name": "DEFAULT_ADMIN_ROLE",
      "outputs": [
        {
          "internalType": "bytes32",
          "name": "",
          "type": "bytes32"
        }
      ],
      "stateMutability": "view",
      "type": "function",
      "constant": true
    },
    {
      "inputs": [],
      "name": "bank",
      "outputs": [
        {
          "internalType": "bytes32",
          "name": "",
          "type": "bytes32"
        }
      ],
      "stateMutability": "view",
      "type": "function",
      "constant": true
    },
    {
      "inputs": [
        {
          "internalType": "uint256",
          "name": "",
          "type": "uint256"
        }
      ],
      "name": "bankArray",
      "outputs": [
        {
          "internalType": "address",
          "name": "_addressBank",
          "type": "address"
        },
        {
          "internalType": "string",
          "name": "_name",
          "type": "string"
        }
      ],
      "stateMutability": "view",
      "type": "function",
      "constant": true
    },
    {
      "inputs": [],
      "name": "business",
      "outputs": [
        {
          "internalType": "bytes32",
          "name": "",
          "type": "bytes32"
        }
      ],
      "stateMutability": "view",
      "type": "function",
      "constant": true
    },
    {
      "inputs": [
        {
          "internalType": "uint256",
          "name": "",
          "type": "uint256"
        }
      ],
      "name": "businessesArray",
      "outputs": [
        {
          "internalType": "address",
          "name": "_addressBus",
          "type": "address"
        },
        {
          "internalType": "string",
          "name": "_name",
          "type": "string"
        },
        {
          "internalType": "string",
          "name": "_bankAccount",
          "type": "string"
        },
        {
          "internalType": "uint256",
          "name": "_companyNumber",
          "type": "uint256"
        },
        {
          "internalType": "string",
          "name": "_bankName",
          "type": "string"
        }
      ],
      "stateMutability": "view",
      "type": "function",
      "constant": true
    },
    {
      "inputs": [
        {
          "internalType": "bytes32",
          "name": "role",
          "type": "bytes32"
        }
      ],
      "name": "getRoleAdmin",
      "outputs": [
        {
          "internalType": "bytes32",
          "name": "",
          "type": "bytes32"
        }
      ],
      "stateMutability": "view",
      "type": "function",
      "constant": true
    },
    {
      "inputs": [],
      "name": "government",
      "outputs": [
        {
          "internalType": "bytes32",
          "name": "",
          "type": "bytes32"
        }
      ],
      "stateMutability": "view",
      "type": "function",
      "constant": true
    },
    {
      "inputs": [
        {
          "internalType": "bytes32",
          "name": "role",
          "type": "bytes32"
        },
        {
          "internalType": "address",
          "name": "account",
          "type": "address"
        }
      ],
      "name": "grantRole",
      "outputs": [],
      "stateMutability": "nonpayable",
      "type": "function"
    },
    {
      "inputs": [
        {
          "internalType": "bytes32",
          "name": "role",
          "type": "bytes32"
        },
        {
          "internalType": "address",
          "name": "account",
          "type": "address"
        }
      ],
      "name": "hasRole",
      "outputs": [
        {
          "internalType": "bool",
          "name": "",
          "type": "bool"
        }
      ],
      "stateMutability": "view",
      "type": "function",
      "constant": true
    },
    {
      "inputs": [],
      "name": "owner",
      "outputs": [
        {
          "internalType": "address",
          "name": "",
          "type": "address"
        }
      ],
      "stateMutability": "view",
      "type": "function",
      "constant": true
    },
    {
      "inputs": [],
      "name": "renounceOwnership",
      "outputs": [],
      "stateMutability": "nonpayable",
      "type": "function"
    },
    {
      "inputs": [
        {
          "internalType": "bytes32",
          "name": "role",
          "type": "bytes32"
        },
        {
          "internalType": "address",
          "name": "account",
          "type": "address"
        }
      ],
      "name": "renounceRole",
      "outputs": [],
      "stateMutability": "nonpayable",
      "type": "function"
    },
    {
      "inputs": [
        {
          "internalType": "bytes32",
          "name": "role",
          "type": "bytes32"
        },
        {
          "internalType": "address",
          "name": "account",
          "type": "address"
        }
      ],
      "name": "revokeRole",
      "outputs": [],
      "stateMutability": "nonpayable",
      "type": "function"
    },
    {
      "inputs": [
        {
          "internalType": "bytes4",
          "name": "interfaceId",
          "type": "bytes4"
        }
      ],
      "name": "supportsInterface",
      "outputs": [
        {
          "internalType": "bool",
          "name": "",
          "type": "bool"
        }
      ],
      "stateMutability": "view",
      "type": "function",
      "constant": true
    },
    {
      "inputs": [
        {
          "internalType": "address",
          "name": "newOwner",
          "type": "address"
        }
      ],
      "name": "transferOwnership",
      "outputs": [],
      "stateMutability": "nonpayable",
      "type": "function"
    },
    {
      "inputs": [],
      "name": "getBankArray",
      "outputs": [
        {
          "components": [
            {
              "internalType": "address",
              "name": "_addressBank",
              "type": "address"
            },
            {
              "internalType": "string",
              "name": "_name",
              "type": "string"
            }
          ],
          "internalType": "struct fraudBattle.Banks[]",
          "name": "",
          "type": "tuple[]"
        }
      ],
      "stateMutability": "view",
      "type": "function",
      "constant": true
    },
    {
      "inputs": [],
      "name": "getBusinessArray",
      "outputs": [
        {
          "components": [
            {
              "internalType": "address",
              "name": "_addressBus",
              "type": "address"
            },
            {
              "internalType": "string",
              "name": "_name",
              "type": "string"
            },
            {
              "internalType": "string",
              "name": "_bankAccount",
              "type": "string"
            },
            {
              "internalType": "uint256",
              "name": "_companyNumber",
              "type": "uint256"
            },
            {
              "internalType": "string",
              "name": "_bankName",
              "type": "string"
            }
          ],
          "internalType": "struct fraudBattle.Businesses[]",
          "name": "",
          "type": "tuple[]"
        }
      ],
      "stateMutability": "view",
      "type": "function",
      "constant": true
    },
    {
      "inputs": [
        {
          "internalType": "address",
          "name": "_address",
          "type": "address"
        },
        {
          "internalType": "string",
          "name": "_registeredName",
          "type": "string"
        }
      ],
      "name": "addBankUser",
      "outputs": [],
      "stateMutability": "nonpayable",
      "type": "function"
    },
    {
      "inputs": [
        {
          "internalType": "address",
          "name": "_address",
          "type": "address"
        },
        {
          "internalType": "string",
          "name": "_name",
          "type": "string"
        },
        {
          "internalType": "string",
          "name": "_bankAccount",
          "type": "string"
        },
        {
          "internalType": "uint256",
          "name": "_companyNumber",
          "type": "uint256"
        },
        {
          "internalType": "string",
          "name": "_bankName",
          "type": "string"
        }
      ],
      "name": "addBusiness",
      "outputs": [],
      "stateMutability": "nonpayable",
      "type": "function"
    },
    {
      "inputs": [
        {
          "internalType": "uint256",
          "name": "_providedCompanyNumber",
          "type": "uint256"
        },
        {
          "internalType": "string",
          "name": "_providedBankAccount",
          "type": "string"
        }
      ],
      "name": "bankSignature",
      "outputs": [],
      "stateMutability": "nonpayable",
      "type": "function"
    },
    {
      "inputs": [
        {
          "internalType": "uint256",
          "name": "_providedCompanyNumber",
          "type": "uint256"
        },
        {
          "internalType": "string",
          "name": "_providedBankAccount",
          "type": "string"
        }
      ],
      "name": "busSignature",
      "outputs": [],
      "stateMutability": "nonpayable",
      "type": "function"
    },
    {
      "inputs": [
        {
          "internalType": "uint256",
          "name": "_providedCompanyNumber",
          "type": "uint256"
        },
        {
          "internalType": "string",
          "name": "_providedBankAccount",
          "type": "string"
        }
      ],
      "name": "govSignature",
      "outputs": [],
      "stateMutability": "nonpayable",
      "type": "function"
    },
    {
      "inputs": [
        {
          "internalType": "uint256",
          "name": "_providedCompanyNumber",
          "type": "uint256"
        }
      ],
      "name": "getValidBankAccount",
      "outputs": [
        {
          "internalType": "string",
          "name": "_bankAccount",
          "type": "string"
        }
      ],
      "stateMutability": "view",
      "type": "function",
      "constant": true
    }
  ],
  "bytecode": "0x60806040523480156200001157600080fd5b5062000032620000266200004d60201b60201c565b6200005560201b60201c565b620000476000801b336200011960201b60201c565b6200028b565b600033905090565b60008060009054906101000a900473ffffffffffffffffffffffffffffffffffffffff169050816000806101000a81548173ffffffffffffffffffffffffffffffffffffffff021916908373ffffffffffffffffffffffffffffffffffffffff1602179055508173ffffffffffffffffffffffffffffffffffffffff168173ffffffffffffffffffffffffffffffffffffffff167f8be0079c531659141344cd1fd0a4f28419497f9722a3daafe3b4186f6b6457e060405160405180910390a35050565b6200012b82826200012f60201b60201c565b5050565b6200014182826200022060201b60201c565b6200021c57600180600084815260200190815260200160002060000160008373ffffffffffffffffffffffffffffffffffffffff1673ffffffffffffffffffffffffffffffffffffffff16815260200190815260200160002060006101000a81548160ff021916908315150217905550620001c16200004d60201b60201c565b73ffffffffffffffffffffffffffffffffffffffff168173ffffffffffffffffffffffffffffffffffffffff16837f2f8788117e7eff1d82e926ec794901d17c78024a50270940304540a733656f0d60405160405180910390a45b5050565b60006001600084815260200190815260200160002060000160008373ffffffffffffffffffffffffffffffffffffffff1673ffffffffffffffffffffffffffffffffffffffff16815260200190815260200160002060009054906101000a900460ff16905092915050565b613255806200029b6000396000f3fe608060405234801561001057600080fd5b506004361061014d5760003560e01c806376cdb03b116100c3578063a212847d1161007c578063a212847d146103a1578063a217fddf146103bf578063d547741f146103dd578063e74dc11c146103f9578063ee124a2d14610417578063f2fde38b146104335761014d565b806376cdb03b146102b55780638cba40c1146102d35780638da5cb5b146103035780638e974ab91461032157806391d14854146103555780639cb26b6f146103855761014d565b80632f2ff15d116101155780632f2ff15d1461021d57806336568abe146102395780634c741c1114610255578063539113c714610273578063616688ef1461028f578063715018a6146102ab5761014d565b806301ffc9a71461015257806303879bf7146101825780631b46daca146101b3578063248a9ca3146101cf5780632672f526146101ff575b600080fd5b61016c600480360381019061016791906120f8565b61044f565b6040516101799190612140565b60405180910390f35b61019c60048036038101906101979190612191565b6104c9565b6040516101aa929190612298565b60405180910390f35b6101cd60048036038101906101c89190612429565b6105a5565b005b6101e960048036038101906101e4919061252e565b6107dc565b6040516101f6919061256a565b60405180910390f35b6102076107fc565b604051610214919061256a565b60405180910390f35b61023760048036038101906102329190612585565b610820565b005b610253600480360381019061024e9190612585565b610849565b005b61025d6108cc565b60405161026a9190612773565b60405180910390f35b61028d60048036038101906102889190612795565b610b41565b005b6102a960048036038101906102a49190612795565b610d1e565b005b6102b3610efb565b005b6102bd610f83565b6040516102ca919061256a565b60405180910390f35b6102ed60048036038101906102e89190612191565b610fa7565b6040516102fa91906127f1565b60405180910390f35b61030b611184565b6040516103189190612813565b60405180910390f35b61033b60048036038101906103369190612191565b6111ad565b60405161034c95949392919061283d565b60405180910390f35b61036f600480360381019061036a9190612585565b6113ab565b60405161037c9190612140565b60405180910390f35b61039f600480360381019061039a91906128a5565b611416565b005b6103a96115b9565b6040516103b69190612a00565b60405180910390f35b6103c7611700565b6040516103d4919061256a565b60405180910390f35b6103f760048036038101906103f29190612585565b611707565b005b610401611730565b60405161040e919061256a565b60405180910390f35b610431600480360381019061042c9190612795565b611754565b005b61044d60048036038101906104489190612a22565b611920565b005b60007f7965db0b000000000000000000000000000000000000000000000000000000007bffffffffffffffffffffffffffffffffffffffffffffffffffffffff1916827bffffffffffffffffffffffffffffffffffffffffffffffffffffffff191614806104c257506104c182611a18565b5b9050919050565b600681815481106104d957600080fd5b90600052602060002090600202016000915090508060000160009054906101000a900473ffffffffffffffffffffffffffffffffffffffff169080600101805461052290612a7e565b80601f016020809104026020016040519081016040528092919081815260200182805461054e90612a7e565b801561059b5780601f106105705761010080835404028352916020019161059b565b820191906000526020600020905b81548152906001019060200180831161057e57829003601f168201915b5050505050905082565b6105ad611a82565b73ffffffffffffffffffffffffffffffffffffffff166105cb611184565b73ffffffffffffffffffffffffffffffffffffffff1614610621576040517f08c379a000000000000000000000000000000000000000000000000000000000815260040161061890612afc565b60405180910390fd5b600115156002826040516106359190612b58565b908152602001604051809103902060009054906101000a900460ff16151514610693576040517f08c379a000000000000000000000000000000000000000000000000000000000815260040161068a90612be1565b60405180910390fd5b60006040518060a001604052808773ffffffffffffffffffffffffffffffffffffffff168152602001868152602001858152602001848152602001838152509050600781908060018154018082558091505060019003906000526020600020906005020160009091909190915060008201518160000160006101000a81548173ffffffffffffffffffffffffffffffffffffffff021916908373ffffffffffffffffffffffffffffffffffffffff1602179055506020820151816001019080519060200190610763929190611fe9565b506040820151816002019080519060200190610780929190611fe9565b506060820151816003015560808201518160040190805190602001906107a7929190611fe9565b5050506107d47f4639789e15ff748c2ee5ad3e8ae97408e1bb54671ffe37777e5aefe1a8715a2887610820565b505050505050565b600060016000838152602001908152602001600020600101549050919050565b7fbb49e51cf68658f42d899c25f243f290ed423f90c2b23f51933440939de284b981565b610829826107dc565b61083a81610835611a82565b611a8a565b6108448383611b27565b505050565b610851611a82565b73ffffffffffffffffffffffffffffffffffffffff168173ffffffffffffffffffffffffffffffffffffffff16146108be576040517f08c379a00000000000000000000000000000000000000000000000000000000081526004016108b590612c73565b60405180910390fd5b6108c88282611c07565b5050565b60606007805480602002602001604051908101604052809291908181526020016000905b82821015610b3857838290600052602060002090600502016040518060a00160405290816000820160009054906101000a900473ffffffffffffffffffffffffffffffffffffffff1673ffffffffffffffffffffffffffffffffffffffff1673ffffffffffffffffffffffffffffffffffffffff16815260200160018201805461097990612a7e565b80601f01602080910402602001604051908101604052809291908181526020018280546109a590612a7e565b80156109f25780601f106109c7576101008083540402835291602001916109f2565b820191906000526020600020905b8154815290600101906020018083116109d557829003601f168201915b50505050508152602001600282018054610a0b90612a7e565b80601f0160208091040260200160405190810160405280929190818152602001828054610a3790612a7e565b8015610a845780601f10610a5957610100808354040283529160200191610a84565b820191906000526020600020905b815481529060010190602001808311610a6757829003601f168201915b5050505050815260200160038201548152602001600482018054610aa790612a7e565b80601f0160208091040260200160405190810160405280929190818152602001828054610ad390612a7e565b8015610b205780601f10610af557610100808354040283529160200191610b20565b820191906000526020600020905b815481529060010190602001808311610b0357829003601f168201915b505050505081525050815260200190600101906108f0565b50505050905090565b6000600780549050905060005b81811015610d185760078181548110610b6a57610b69612c93565b5b90600052602060002090600502016003015484148015610bfa575060078181548110610b9957610b98612c93565b5b906000526020600020906005020160000160009054906101000a900473ffffffffffffffffffffffffffffffffffffffff1673ffffffffffffffffffffffffffffffffffffffff163373ffffffffffffffffffffffffffffffffffffffff16145b8015610c75575060078181548110610c1557610c14612c93565b5b9060005260206000209060050201600201604051602001610c369190612d56565b6040516020818303038152906040528051906020012083604051602001610c5d9190612b58565b60405160208183030381529060405280519060200120145b610cb4576040517f08c379a0000000000000000000000000000000000000000000000000000000008152600401610cab90612ddf565b60405180910390fd5b60016004600060078481548110610cce57610ccd612c93565b5b906000526020600020906005020160030154815260200190815260200160002060006101000a81548160ff0219169083151502179055508080610d1090612e2e565b915050610b4e565b50505050565b610d26611a82565b73ffffffffffffffffffffffffffffffffffffffff16610d44611184565b73ffffffffffffffffffffffffffffffffffffffff1614610d9a576040517f08c379a0000000000000000000000000000000000000000000000000000000008152600401610d9190612afc565b60405180910390fd5b6000600780549050905060005b81811015610ef55760078181548110610dc357610dc2612c93565b5b90600052602060002090600502016003015484148015610e52575060078181548110610df257610df1612c93565b5b9060005260206000209060050201600201604051602001610e139190612d56565b6040516020818303038152906040528051906020012083604051602001610e3a9190612b58565b60405160208183030381529060405280519060200120145b610e91576040517f08c379a0000000000000000000000000000000000000000000000000000000008152600401610e8890612ddf565b60405180910390fd5b60016005600060078481548110610eab57610eaa612c93565b5b906000526020600020906005020160030154815260200190815260200160002060006101000a81548160ff0219169083151502179055508080610eed90612e2e565b915050610da7565b50505050565b610f03611a82565b73ffffffffffffffffffffffffffffffffffffffff16610f21611184565b73ffffffffffffffffffffffffffffffffffffffff1614610f77576040517f08c379a0000000000000000000000000000000000000000000000000000000008152600401610f6e90612afc565b60405180910390fd5b610f816000611ce9565b565b7fea0ca03c7adbe41dc655fec28a9209dc8e6e042f3d991a67765ba285b9cf73a081565b60606000600780549050905060005b8181101561117c578360078281548110610fd357610fd2612c93565b5b906000526020600020906005020160030154141561116957600115156003600086815260200190815260200160002060009054906101000a900460ff1615151480156110435750600115156004600086815260200190815260200160002060009054906101000a900460ff161515145b80156110735750600115156005600086815260200190815260200160002060009054906101000a900460ff161515145b6110b2576040517f08c379a00000000000000000000000000000000000000000000000000000000081526004016110a990612ee9565b60405180910390fd5b600781815481106110c6576110c5612c93565b5b906000526020600020906005020160020180546110e290612a7e565b80601f016020809104026020016040519081016040528092919081815260200182805461110e90612a7e565b801561115b5780601f106111305761010080835404028352916020019161115b565b820191906000526020600020905b81548152906001019060200180831161113e57829003601f168201915b50505050509250505061117f565b808061117490612e2e565b915050610fb6565b50505b919050565b60008060009054906101000a900473ffffffffffffffffffffffffffffffffffffffff16905090565b600781815481106111bd57600080fd5b90600052602060002090600502016000915090508060000160009054906101000a900473ffffffffffffffffffffffffffffffffffffffff169080600101805461120690612a7e565b80601f016020809104026020016040519081016040528092919081815260200182805461123290612a7e565b801561127f5780601f106112545761010080835404028352916020019161127f565b820191906000526020600020905b81548152906001019060200180831161126257829003601f168201915b50505050509080600201805461129490612a7e565b80601f01602080910402602001604051908101604052809291908181526020018280546112c090612a7e565b801561130d5780601f106112e25761010080835404028352916020019161130d565b820191906000526020600020905b8154815290600101906020018083116112f057829003601f168201915b50505050509080600301549080600401805461132890612a7e565b80601f016020809104026020016040519081016040528092919081815260200182805461135490612a7e565b80156113a15780601f10611376576101008083540402835291602001916113a1565b820191906000526020600020905b81548152906001019060200180831161138457829003601f168201915b5050505050905085565b60006001600084815260200190815260200160002060000160008373ffffffffffffffffffffffffffffffffffffffff1673ffffffffffffffffffffffffffffffffffffffff16815260200190815260200160002060009054906101000a900460ff16905092915050565b61141e611a82565b73ffffffffffffffffffffffffffffffffffffffff1661143c611184565b73ffffffffffffffffffffffffffffffffffffffff1614611492576040517f08c379a000000000000000000000000000000000000000000000000000000000815260040161148990612afc565b60405180910390fd5b600060405180604001604052808473ffffffffffffffffffffffffffffffffffffffff168152602001838152509050600681908060018154018082558091505060019003906000526020600020906002020160009091909190915060008201518160000160006101000a81548173ffffffffffffffffffffffffffffffffffffffff021916908373ffffffffffffffffffffffffffffffffffffffff1602179055506020820151816001019080519060200190611550929190611fe9565b50505061157d7fea0ca03c7adbe41dc655fec28a9209dc8e6e042f3d991a67765ba285b9cf73a084610820565b600160028360405161158f9190612b58565b908152602001604051809103902060006101000a81548160ff021916908315150217905550505050565b60606006805480602002602001604051908101604052809291908181526020016000905b828210156116f757838290600052602060002090600202016040518060400160405290816000820160009054906101000a900473ffffffffffffffffffffffffffffffffffffffff1673ffffffffffffffffffffffffffffffffffffffff1673ffffffffffffffffffffffffffffffffffffffff16815260200160018201805461166690612a7e565b80601f016020809104026020016040519081016040528092919081815260200182805461169290612a7e565b80156116df5780601f106116b4576101008083540402835291602001916116df565b820191906000526020600020905b8154815290600101906020018083116116c257829003601f168201915b505050505081525050815260200190600101906115dd565b50505050905090565b6000801b81565b611710826107dc565b6117218161171c611a82565b611a8a565b61172b8383611c07565b505050565b7f4639789e15ff748c2ee5ad3e8ae97408e1bb54671ffe37777e5aefe1a8715a2881565b3361177f7fea0ca03c7adbe41dc655fec28a9209dc8e6e042f3d991a67765ba285b9cf73a0336113ab565b6117be576040517f08c379a00000000000000000000000000000000000000000000000000000000081526004016117b590612f55565b60405180910390fd5b6000600780549050905060005b8181101561191957600781815481106117e7576117e6612c93565b5b9060005260206000209060050201600301548514801561187657506007818154811061181657611815612c93565b5b90600052602060002090600502016002016040516020016118379190612d56565b604051602081830303815290604052805190602001208460405160200161185e9190612b58565b60405160208183030381529060405280519060200120145b6118b5576040517f08c379a00000000000000000000000000000000000000000000000000000000081526004016118ac90612ddf565b60405180910390fd5b600160036000600784815481106118cf576118ce612c93565b5b906000526020600020906005020160030154815260200190815260200160002060006101000a81548160ff021916908315150217905550808061191190612e2e565b9150506117cb565b5050505050565b611928611a82565b73ffffffffffffffffffffffffffffffffffffffff16611946611184565b73ffffffffffffffffffffffffffffffffffffffff161461199c576040517f08c379a000000000000000000000000000000000000000000000000000000000815260040161199390612afc565b60405180910390fd5b600073ffffffffffffffffffffffffffffffffffffffff168173ffffffffffffffffffffffffffffffffffffffff161415611a0c576040517f08c379a0000000000000000000000000000000000000000000000000000000008152600401611a0390612fe7565b60405180910390fd5b611a1581611ce9565b50565b60007f01ffc9a7000000000000000000000000000000000000000000000000000000007bffffffffffffffffffffffffffffffffffffffffffffffffffffffff1916827bffffffffffffffffffffffffffffffffffffffffffffffffffffffff1916149050919050565b600033905090565b611a9482826113ab565b611b2357611ab98173ffffffffffffffffffffffffffffffffffffffff166014611dad565b611ac78360001c6020611dad565b604051602001611ad892919061309f565b6040516020818303038152906040526040517f08c379a0000000000000000000000000000000000000000000000000000000008152600401611b1a91906127f1565b60405180910390fd5b5050565b611b3182826113ab565b611c0357600180600084815260200190815260200160002060000160008373ffffffffffffffffffffffffffffffffffffffff1673ffffffffffffffffffffffffffffffffffffffff16815260200190815260200160002060006101000a81548160ff021916908315150217905550611ba8611a82565b73ffffffffffffffffffffffffffffffffffffffff168173ffffffffffffffffffffffffffffffffffffffff16837f2f8788117e7eff1d82e926ec794901d17c78024a50270940304540a733656f0d60405160405180910390a45b5050565b611c1182826113ab565b15611ce55760006001600084815260200190815260200160002060000160008373ffffffffffffffffffffffffffffffffffffffff1673ffffffffffffffffffffffffffffffffffffffff16815260200190815260200160002060006101000a81548160ff021916908315150217905550611c8a611a82565b73ffffffffffffffffffffffffffffffffffffffff168173ffffffffffffffffffffffffffffffffffffffff16837ff6391f5c32d9c69d2a47ea670b442974b53935d1edc7fd64eb21e047a839171b60405160405180910390a45b5050565b60008060009054906101000a900473ffffffffffffffffffffffffffffffffffffffff169050816000806101000a81548173ffffffffffffffffffffffffffffffffffffffff021916908373ffffffffffffffffffffffffffffffffffffffff1602179055508173ffffffffffffffffffffffffffffffffffffffff168173ffffffffffffffffffffffffffffffffffffffff167f8be0079c531659141344cd1fd0a4f28419497f9722a3daafe3b4186f6b6457e060405160405180910390a35050565b606060006002836002611dc091906130d9565b611dca9190613133565b67ffffffffffffffff811115611de357611de26122fe565b5b6040519080825280601f01601f191660200182016040528015611e155781602001600182028036833780820191505090505b5090507f300000000000000000000000000000000000000000000000000000000000000081600081518110611e4d57611e4c612c93565b5b60200101907effffffffffffffffffffffffffffffffffffffffffffffffffffffffffffff1916908160001a9053507f780000000000000000000000000000000000000000000000000000000000000081600181518110611eb157611eb0612c93565b5b60200101907effffffffffffffffffffffffffffffffffffffffffffffffffffffffffffff1916908160001a90535060006001846002611ef191906130d9565b611efb9190613133565b90505b6001811115611f9b577f3031323334353637383961626364656600000000000000000000000000000000600f861660108110611f3d57611f3c612c93565b5b1a60f81b828281518110611f5457611f53612c93565b5b60200101907effffffffffffffffffffffffffffffffffffffffffffffffffffffffffffff1916908160001a905350600485901c945080611f9490613189565b9050611efe565b5060008414611fdf576040517f08c379a0000000000000000000000000000000000000000000000000000000008152600401611fd6906131ff565b60405180910390fd5b8091505092915050565b828054611ff590612a7e565b90600052602060002090601f016020900481019282612017576000855561205e565b82601f1061203057805160ff191683800117855561205e565b8280016001018555821561205e579182015b8281111561205d578251825591602001919060010190612042565b5b50905061206b919061206f565b5090565b5b80821115612088576000816000905550600101612070565b5090565b6000604051905090565b600080fd5b600080fd5b60007fffffffff0000000000000000000000000000000000000000000000000000000082169050919050565b6120d5816120a0565b81146120e057600080fd5b50565b6000813590506120f2816120cc565b92915050565b60006020828403121561210e5761210d612096565b5b600061211c848285016120e3565b91505092915050565b60008115159050919050565b61213a81612125565b82525050565b60006020820190506121556000830184612131565b92915050565b6000819050919050565b61216e8161215b565b811461217957600080fd5b50565b60008135905061218b81612165565b92915050565b6000602082840312156121a7576121a6612096565b5b60006121b58482850161217c565b91505092915050565b600073ffffffffffffffffffffffffffffffffffffffff82169050919050565b60006121e9826121be565b9050919050565b6121f9816121de565b82525050565b600081519050919050565b600082825260208201905092915050565b60005b8381101561223957808201518184015260208101905061221e565b83811115612248576000848401525b50505050565b6000601f19601f8301169050919050565b600061226a826121ff565b612274818561220a565b935061228481856020860161221b565b61228d8161224e565b840191505092915050565b60006040820190506122ad60008301856121f0565b81810360208301526122bf818461225f565b90509392505050565b6122d1816121de565b81146122dc57600080fd5b50565b6000813590506122ee816122c8565b92915050565b600080fd5b600080fd5b7f4e487b7100000000000000000000000000000000000000000000000000000000600052604160045260246000fd5b6123368261224e565b810181811067ffffffffffffffff82111715612355576123546122fe565b5b80604052505050565b600061236861208c565b9050612374828261232d565b919050565b600067ffffffffffffffff821115612394576123936122fe565b5b61239d8261224e565b9050602081019050919050565b82818337600083830152505050565b60006123cc6123c784612379565b61235e565b9050828152602081018484840111156123e8576123e76122f9565b5b6123f38482856123aa565b509392505050565b600082601f8301126124105761240f6122f4565b5b81356124208482602086016123b9565b91505092915050565b600080600080600060a0868803121561244557612444612096565b5b6000612453888289016122df565b955050602086013567ffffffffffffffff8111156124745761247361209b565b5b612480888289016123fb565b945050604086013567ffffffffffffffff8111156124a1576124a061209b565b5b6124ad888289016123fb565b93505060606124be8882890161217c565b925050608086013567ffffffffffffffff8111156124df576124de61209b565b5b6124eb888289016123fb565b9150509295509295909350565b6000819050919050565b61250b816124f8565b811461251657600080fd5b50565b60008135905061252881612502565b92915050565b60006020828403121561254457612543612096565b5b600061255284828501612519565b91505092915050565b612564816124f8565b82525050565b600060208201905061257f600083018461255b565b92915050565b6000806040838503121561259c5761259b612096565b5b60006125aa85828601612519565b92505060206125bb858286016122df565b9150509250929050565b600081519050919050565b600082825260208201905092915050565b6000819050602082019050919050565b6125fa816121de565b82525050565b600082825260208201905092915050565b600061261c826121ff565b6126268185612600565b935061263681856020860161221b565b61263f8161224e565b840191505092915050565b6126538161215b565b82525050565b600060a08301600083015161267160008601826125f1565b50602083015184820360208601526126898282612611565b915050604083015184820360408601526126a38282612611565b91505060608301516126b8606086018261264a565b50608083015184820360808601526126d08282612611565b9150508091505092915050565b60006126e98383612659565b905092915050565b6000602082019050919050565b6000612709826125c5565b61271381856125d0565b935083602082028501612725856125e1565b8060005b85811015612761578484038952815161274285826126dd565b945061274d836126f1565b925060208a01995050600181019050612729565b50829750879550505050505092915050565b6000602082019050818103600083015261278d81846126fe565b905092915050565b600080604083850312156127ac576127ab612096565b5b60006127ba8582860161217c565b925050602083013567ffffffffffffffff8111156127db576127da61209b565b5b6127e7858286016123fb565b9150509250929050565b6000602082019050818103600083015261280b818461225f565b905092915050565b600060208201905061282860008301846121f0565b92915050565b6128378161215b565b82525050565b600060a08201905061285260008301886121f0565b8181036020830152612864818761225f565b90508181036040830152612878818661225f565b9050612887606083018561282e565b8181036080830152612899818461225f565b90509695505050505050565b600080604083850312156128bc576128bb612096565b5b60006128ca858286016122df565b925050602083013567ffffffffffffffff8111156128eb576128ea61209b565b5b6128f7858286016123fb565b9150509250929050565b600081519050919050565b600082825260208201905092915050565b6000819050602082019050919050565b600060408301600083015161294560008601826125f1565b506020830151848203602086015261295d8282612611565b9150508091505092915050565b6000612976838361292d565b905092915050565b6000602082019050919050565b600061299682612901565b6129a0818561290c565b9350836020820285016129b28561291d565b8060005b858110156129ee57848403895281516129cf858261296a565b94506129da8361297e565b925060208a019950506001810190506129b6565b50829750879550505050505092915050565b60006020820190508181036000830152612a1a818461298b565b905092915050565b600060208284031215612a3857612a37612096565b5b6000612a46848285016122df565b91505092915050565b7f4e487b7100000000000000000000000000000000000000000000000000000000600052602260045260246000fd5b60006002820490506001821680612a9657607f821691505b60208210811415612aaa57612aa9612a4f565b5b50919050565b7f4f776e61626c653a2063616c6c6572206973206e6f7420746865206f776e6572600082015250565b6000612ae660208361220a565b9150612af182612ab0565b602082019050919050565b60006020820190508181036000830152612b1581612ad9565b9050919050565b600081905092915050565b6000612b32826121ff565b612b3c8185612b1c565b9350612b4c81856020860161221b565b80840191505092915050565b6000612b648284612b27565b915081905092915050565b7f556e6b6e6f776e2062616e6b206e616d652c206f722062616e6b206861736e2760008201527f74206265656e2072656769737465726564207965740000000000000000000000602082015250565b6000612bcb60358361220a565b9150612bd682612b6f565b604082019050919050565b60006020820190508181036000830152612bfa81612bbe565b9050919050565b7f416363657373436f6e74726f6c3a2063616e206f6e6c792072656e6f756e636560008201527f20726f6c657320666f722073656c660000000000000000000000000000000000602082015250565b6000612c5d602f8361220a565b9150612c6882612c01565b604082019050919050565b60006020820190508181036000830152612c8c81612c50565b9050919050565b7f4e487b7100000000000000000000000000000000000000000000000000000000600052603260045260246000fd5b60008190508160005260206000209050919050565b60008154612ce481612a7e565b612cee8186612b1c565b94506001821660008114612d095760018114612d1a57612d4d565b60ff19831686528186019350612d4d565b612d2385612cc2565b60005b83811015612d4557815481890152600182019150602081019050612d26565b838801955050505b50505092915050565b6000612d628284612cd7565b915081905092915050565b7f556e6b6e6f776e20636f6d70616e796e756d626572206f722062616e6b20616360008201527f636f756e74000000000000000000000000000000000000000000000000000000602082015250565b6000612dc960258361220a565b9150612dd482612d6d565b604082019050919050565b60006020820190508181036000830152612df881612dbc565b9050919050565b7f4e487b7100000000000000000000000000000000000000000000000000000000600052601160045260246000fd5b6000612e398261215b565b91507fffffffffffffffffffffffffffffffffffffffffffffffffffffffffffffffff821415612e6c57612e6b612dff565b5b600182019050919050565b7f5468697320636f6d70616e79206e756d62657220646f65736e2774206861766560008201527f203320646966666572656e74207369676e617475726573000000000000000000602082015250565b6000612ed360378361220a565b9150612ede82612e77565b604082019050919050565b60006020820190508181036000830152612f0281612ec6565b9050919050565b7f4e6f7420612062616e6b00000000000000000000000000000000000000000000600082015250565b6000612f3f600a8361220a565b9150612f4a82612f09565b602082019050919050565b60006020820190508181036000830152612f6e81612f32565b9050919050565b7f4f776e61626c653a206e6577206f776e657220697320746865207a65726f206160008201527f6464726573730000000000000000000000000000000000000000000000000000602082015250565b6000612fd160268361220a565b9150612fdc82612f75565b604082019050919050565b6000602082019050818103600083015261300081612fc4565b9050919050565b7f416363657373436f6e74726f6c3a206163636f756e7420000000000000000000600082015250565b600061303d601783612b1c565b915061304882613007565b601782019050919050565b7f206973206d697373696e6720726f6c6520000000000000000000000000000000600082015250565b6000613089601183612b1c565b915061309482613053565b601182019050919050565b60006130aa82613030565b91506130b68285612b27565b91506130c18261307c565b91506130cd8284612b27565b91508190509392505050565b60006130e48261215b565b91506130ef8361215b565b9250817fffffffffffffffffffffffffffffffffffffffffffffffffffffffffffffffff048311821515161561312857613127612dff565b5b828202905092915050565b600061313e8261215b565b91506131498361215b565b9250827fffffffffffffffffffffffffffffffffffffffffffffffffffffffffffffffff0382111561317e5761317d612dff565b5b828201905092915050565b60006131948261215b565b915060008214156131a8576131a7612dff565b5b600182039050919050565b7f537472696e67733a20686578206c656e67746820696e73756666696369656e74600082015250565b60006131e960208361220a565b91506131f4826131b3565b602082019050919050565b60006020820190508181036000830152613218816131dc565b905091905056fea2646970667358221220c7cb0795f40b722891603702f15acd5d2e6d9a9d5e10125269f4242361800b5564736f6c63430008090033",
  "immutableReferences": {},
  "source": "// SPDX-License-Identifier: MIT\r\npragma solidity 0.8.9;\r\nimport \"@openzeppelin/contracts/access/Ownable.sol\";\r\nimport \"@openzeppelin/contracts/access/AccessControl.sol\";\r\n\r\n/// @title B2B Fraud Battle\r\n/// @author pclaesen\r\n/// @notice Basic functionality works. For this final project, the contract owner also has the role of the government\r\n/// @dev All function calls are currently implemented without side effects\r\n\r\n\r\ncontract fraudBattle is Ownable, AccessControl {\r\n\r\n  constructor () public {\r\n    _setupRole(DEFAULT_ADMIN_ROLE, msg.sender);\r\n  }\r\n  \r\n  bytes32 public constant government = keccak256(\"government\");\r\n  bytes32 public constant bank = keccak256(\"bank\");\r\n  bytes32 public constant business = keccak256(\"business\");\r\n  \r\n  mapping (string => bool) isBankName;\r\n  mapping (uint => bool) isBankSigned;\r\n  mapping (uint => bool) isBusSigned;\r\n  mapping (uint => bool) isGovSigned;\r\n\r\n\r\n  struct Banks  {\r\n    address _addressBank;\r\n    string _name;\r\n  }\r\n\r\n  struct Businesses {\r\n    address _addressBus;\r\n    string _name;\r\n    string _bankAccount;\r\n    uint _companyNumber;\r\n    string _bankName;    \r\n  }\r\n\r\n\r\n  \r\n  Banks[] public bankArray;\r\n  Businesses[] public businessesArray;\r\n    \r\n\r\n  modifier bankOnly(address _bankAddress) {\r\n    require (hasRole(bank, msg.sender),\"Not a bank\");\r\n      _;\r\n    }\r\n\r\n  \r\n  \r\n  /// @dev Use this to lookup the current banks from the on-chain array.\r\n  /// @return Returns the current banks as an array of objects, added by the contract owner.\r\n  \r\n  function getBankArray() public view returns(Banks[] memory) {\r\n    return bankArray;\r\n  }\r\n\r\n  /// @dev Use this to lookup the current businesses from the on-chain array.\r\n  /// @return Returns the current businesses as an array of objects, added by the government (contract owner for ease of use).\r\n\r\n  function getBusinessArray() public view returns(Businesses[] memory) {\r\n    return businessesArray;\r\n  }\r\n\r\n  /// @notice This function adds a bank, only the contract owner can call this function.\r\n  /// @param _address: insert the banks wallet address that will be used to sign the company details\r\n\r\n  /// @param _registeredName: insert the name in capital letters\r\n  function addBankUser(address _address, string memory _registeredName) public onlyOwner {    \r\n    Banks memory banksData = Banks(_address, _registeredName);\r\n    bankArray.push(banksData);\r\n    grantRole(bank, _address);\r\n    isBankName[_registeredName] = true;\r\n  }\r\n\r\n\r\n  /// @notice This function adds a business, only the contract owner (in the role of government for ease of use) can call this function.\r\n  /// @param _address: insert the business wallet address\r\n  /// @param _name: insert the official company name in capital letters\r\n  /// @param _bankAccount: insert the business' bank account in capital letters (if applicable)\r\n  /// @param _companyNumber: insert the unique company number\r\n  /// @param _bankName: insert the official bank name in capital letters\r\n\r\n  function addBusiness(address _address, string memory _name, string memory _bankAccount, uint _companyNumber, string memory _bankName) public onlyOwner {\r\n      require (isBankName[_bankName] == true, \"Unknown bank name, or bank hasn't been registered yet\");\r\n    Businesses memory busData = Businesses(_address, _name, _bankAccount, _companyNumber, _bankName);\r\n    businessesArray.push(busData);\r\n    grantRole(business, _address);\r\n  }\r\n\r\n  /// @notice general: The 3 actors need to sign a transaction to add the bank account and business number to a new array. This new public array can be called with a JS call.\r\n  /// @notice This function allows the bank to confirm and sign the business' name and bankaccount combination. Only an approved bank wallet address can use this function and sign the transaction. \r\n  /// @param _providedCompanyNumber insert the official company number\r\n  /// @param _providedBankAccount insert the business' official bank account, make sure to use capital letters if applicable\r\n  /// @dev Only uint is accepted for the _providedCompanyNumber parameter, make sure to limit the input in the fronted for better UX\r\n\r\n  function bankSignature(uint _providedCompanyNumber, string memory _providedBankAccount) bankOnly(msg.sender) public {\r\n    \r\n    uint businessesLength = businessesArray.length;\r\n    \r\n    for (uint i = 0; i < businessesLength; i++) {\r\n      require (_providedCompanyNumber == businessesArray[i]._companyNumber && keccak256(abi.encodePacked(_providedBankAccount)) == keccak256(abi.encodePacked(businessesArray[i]._bankAccount)), \"Unknown companynumber or bank account\");\r\n        isBankSigned[businessesArray[i]._companyNumber] = true;\r\n     }\r\n\r\n  }\r\n\r\n\r\n  /// @notice general: The 3 actors need to sign a transaction to add the bank account and business number to a new array. This new public array can be called with a JS call.\r\n  /// @notice This function allows the business to confirm and sign the business' name and bankaccount combination.\r\n  /// @param _providedCompanyNumber insert the official company number\r\n  /// @param _providedBankAccount insert the business' official bank account, make sure to use capital letters if applicable\r\n  /// @dev Only uint is accepted for the _providedCompanyNumber parameter, make sure to limit the input in the fronted for better UX\r\n\r\n  function busSignature(uint _providedCompanyNumber, string memory _providedBankAccount) public {\r\n    \r\n    uint businessesLength = businessesArray.length;\r\n    for (uint i = 0; i < businessesLength; i++) {\r\n      require (_providedCompanyNumber == businessesArray[i]._companyNumber && msg.sender == businessesArray[i]._addressBus && keccak256(abi.encodePacked(_providedBankAccount)) == keccak256(abi.encodePacked(businessesArray[i]._bankAccount)), \"Unknown companynumber or bank account\");\r\n        isBusSigned[businessesArray[i]._companyNumber] = true;\r\n    }\r\n\r\n  }\r\n\r\n  /// @notice general: for the sake of simplicity, we pretend that the contract owner is able to sign as 'the government'.\r\n  /// @notice This function allows the government to confirm and sign the business' name and bankaccount combination.\r\n  /// @param _providedCompanyNumber insert the official company number\r\n  /// @param _providedBankAccount insert the business' official bank account, make sure to use capital letters if applicable\r\n  /// @dev Only uint is accepted for the _providedCompanyNumber parameter, make sure to limit the input in the fronted for better UX\r\n\r\n  function govSignature(uint _providedCompanyNumber,string memory _providedBankAccount) public onlyOwner {\r\n    uint businessesLength = businessesArray.length;\r\n    for (uint i = 0; i < businessesLength; i++) {\r\n      require (_providedCompanyNumber == businessesArray[i]._companyNumber && keccak256(abi.encodePacked(_providedBankAccount)) == keccak256(abi.encodePacked(businessesArray[i]._bankAccount)), \"Unknown companynumber or bank account\");\r\n        isGovSigned[businessesArray[i]._companyNumber] = true;\r\n      }\r\n\r\n  }\r\n\r\n  /// @notice This function checks for 3 different, valid signatures for the business company number and bank account number combination. When the contract detetcs 3 valid signatures, the given bank account for the provided company number is returned.\r\n  /// @param _providedCompanyNumber insert the official company number\r\n  /// @dev The function will throw an error (see line 150) when there are no 3 different, valid signatures\r\n\r\n  function getValidBankAccount(uint _providedCompanyNumber) public view returns(string memory _bankAccount ) {\r\n    uint businessesLength = businessesArray.length;\r\n    \r\n    \r\n    \r\n    for (uint i = 0; i < businessesLength; i++) {\r\n      if (businessesArray[i]._companyNumber == _providedCompanyNumber) {\r\n        require(isBankSigned[_providedCompanyNumber] == true && isBusSigned[_providedCompanyNumber] == true && isGovSigned[_providedCompanyNumber] == true, \"This company number doesn't have 3 different signatures\");\r\n          return businessesArray[i]._bankAccount;\r\n      } \r\n       \r\n    }\r\n\r\n  }\r\n\r\n\r\n}\r\n",
  "sourcePath": "C:/Blockchain/projects/testproject/blockchain-developer-bootcamp-final-project/contracts/fraudBattle.sol",
  "compiler": {
    "name": "solc",
    "version": "0.8.9+commit.e5eed63a.Emscripten.clang"
  },
  "schemaVersion": "3.4.1",
  "updatedAt": "2022-01-06T14:22:41.666Z",
  "networkType": "ethereum",
  "devdoc": {
    "author": "pclaesen",
    "details": "All function calls are currently implemented without side effects",
    "kind": "dev",
    "methods": {
      "addBankUser(address,string)": {
        "params": {
          "_registeredName": ": insert the name in capital letters"
        }
      },
      "addBusiness(address,string,string,uint256,string)": {
        "params": {
          "_address": ": insert the business wallet address",
          "_bankAccount": ": insert the business' bank account in capital letters (if applicable)",
          "_bankName": ": insert the official bank name in capital letters",
          "_companyNumber": ": insert the unique company number",
          "_name": ": insert the official company name in capital letters"
        }
      },
      "bankSignature(uint256,string)": {
        "details": "Only uint is accepted for the _providedCompanyNumber parameter, make sure to limit the input in the fronted for better UX",
        "params": {
          "_providedBankAccount": "insert the business' official bank account, make sure to use capital letters if applicable",
          "_providedCompanyNumber": "insert the official company number"
        }
      },
      "busSignature(uint256,string)": {
        "details": "Only uint is accepted for the _providedCompanyNumber parameter, make sure to limit the input in the fronted for better UX",
        "params": {
          "_providedBankAccount": "insert the business' official bank account, make sure to use capital letters if applicable",
          "_providedCompanyNumber": "insert the official company number"
        }
      },
      "getBankArray()": {
        "details": "Use this to lookup the current banks from the on-chain array.",
        "returns": {
          "_0": "Returns the current banks as an array of objects, added by the contract owner."
        }
      },
      "getBusinessArray()": {
        "details": "Use this to lookup the current businesses from the on-chain array.",
        "returns": {
          "_0": "Returns the current businesses as an array of objects, added by the government (contract owner for ease of use)."
        }
      },
      "getRoleAdmin(bytes32)": {
        "details": "Returns the admin role that controls `role`. See {grantRole} and {revokeRole}. To change a role's admin, use {_setRoleAdmin}."
      },
      "getValidBankAccount(uint256)": {
        "details": "The function will throw an error (see line 150) when there are no 3 different, valid signatures",
        "params": {
          "_providedCompanyNumber": "insert the official company number"
        }
      },
      "govSignature(uint256,string)": {
        "details": "Only uint is accepted for the _providedCompanyNumber parameter, make sure to limit the input in the fronted for better UX",
        "params": {
          "_providedBankAccount": "insert the business' official bank account, make sure to use capital letters if applicable",
          "_providedCompanyNumber": "insert the official company number"
        }
      },
      "grantRole(bytes32,address)": {
        "details": "Grants `role` to `account`. If `account` had not been already granted `role`, emits a {RoleGranted} event. Requirements: - the caller must have ``role``'s admin role."
      },
      "hasRole(bytes32,address)": {
        "details": "Returns `true` if `account` has been granted `role`."
      },
      "owner()": {
        "details": "Returns the address of the current owner."
      },
      "renounceOwnership()": {
        "details": "Leaves the contract without owner. It will not be possible to call `onlyOwner` functions anymore. Can only be called by the current owner. NOTE: Renouncing ownership will leave the contract without an owner, thereby removing any functionality that is only available to the owner."
      },
      "renounceRole(bytes32,address)": {
        "details": "Revokes `role` from the calling account. Roles are often managed via {grantRole} and {revokeRole}: this function's purpose is to provide a mechanism for accounts to lose their privileges if they are compromised (such as when a trusted device is misplaced). If the calling account had been granted `role`, emits a {RoleRevoked} event. Requirements: - the caller must be `account`."
      },
      "revokeRole(bytes32,address)": {
        "details": "Revokes `role` from `account`. If `account` had been granted `role`, emits a {RoleRevoked} event. Requirements: - the caller must have ``role``'s admin role."
      },
      "supportsInterface(bytes4)": {
        "details": "See {IERC165-supportsInterface}."
      },
      "transferOwnership(address)": {
        "details": "Transfers ownership of the contract to a new account (`newOwner`). Can only be called by the current owner."
      }
    },
    "title": "B2B Fraud Battle",
    "version": 1
  },
  "userdoc": {
    "kind": "user",
    "methods": {
      "addBusiness(address,string,string,uint256,string)": {
        "notice": "This function adds a business, only the contract owner (in the role of government for ease of use) can call this function."
      },
      "bankSignature(uint256,string)": {
        "notice": "general: The 3 actors need to sign a transaction to add the bank account and business number to a new array. This new public array can be called with a JS call.This function allows the bank to confirm and sign the business' name and bankaccount combination. Only an approved bank wallet address can use this function and sign the transaction. "
      },
      "busSignature(uint256,string)": {
        "notice": "general: The 3 actors need to sign a transaction to add the bank account and business number to a new array. This new public array can be called with a JS call.This function allows the business to confirm and sign the business' name and bankaccount combination."
      },
      "getValidBankAccount(uint256)": {
        "notice": "This function checks for 3 different, valid signatures for the business company number and bank account number combination. When the contract detetcs 3 valid signatures, the given bank account for the provided company number is returned."
      },
      "govSignature(uint256,string)": {
        "notice": "general: for the sake of simplicity, we pretend that the contract owner is able to sign as 'the government'.This function allows the government to confirm and sign the business' name and bankaccount combination."
      }
    },
    "notice": "Basic functionality works. For this final project, the contract owner also has the role of the government",
    "version": 1
  }
}